{
  "contractName": "ERC721",
  "abi": [
    {
      "anonymous": false,
      "inputs": [
        {
          "indexed": true,
          "internalType": "address",
          "name": "owner",
          "type": "address"
        },
        {
          "indexed": true,
          "internalType": "address",
          "name": "approved",
          "type": "address"
        },
        {
          "indexed": true,
          "internalType": "uint256",
          "name": "tokenId",
          "type": "uint256"
        }
      ],
      "name": "Approval",
      "type": "event"
    },
    {
      "anonymous": false,
      "inputs": [
        {
          "indexed": true,
          "internalType": "address",
          "name": "from",
          "type": "address"
        },
        {
          "indexed": true,
          "internalType": "address",
          "name": "to",
          "type": "address"
        },
        {
          "indexed": true,
          "internalType": "uint256",
          "name": "tokenId",
          "type": "uint256"
        }
      ],
      "name": "Transfer",
      "type": "event"
    },
    {
      "inputs": [
        {
          "internalType": "address",
          "name": "_from",
          "type": "address"
        },
        {
          "internalType": "address",
          "name": "_to",
          "type": "address"
        },
        {
          "internalType": "uint256",
          "name": "_tokenId",
          "type": "uint256"
        }
      ],
      "name": "transferFrom",
      "outputs": [],
      "stateMutability": "nonpayable",
      "type": "function"
    },
    {
      "inputs": [
        {
          "internalType": "address",
          "name": "_to",
          "type": "address"
        },
        {
          "internalType": "uint256",
          "name": "_tokenId",
          "type": "uint256"
        }
      ],
      "name": "approve",
      "outputs": [],
      "stateMutability": "nonpayable",
      "type": "function"
    },
    {
      "inputs": [
        {
          "internalType": "address",
          "name": "_owner",
          "type": "address"
        }
      ],
      "name": "balanceOf",
      "outputs": [
        {
          "internalType": "uint256",
          "name": "",
          "type": "uint256"
        }
      ],
      "stateMutability": "view",
      "type": "function"
    },
    {
      "inputs": [
        {
          "internalType": "uint256",
          "name": "tokenId",
          "type": "uint256"
        }
      ],
      "name": "ownerOf",
      "outputs": [
        {
          "internalType": "address",
          "name": "",
          "type": "address"
        }
      ],
      "stateMutability": "view",
      "type": "function"
    }
  ],
  "bytecode": "0x608060405234801561001057600080fd5b50610ff3806100206000396000f3fe608060405234801561001057600080fd5b506004361061004c5760003560e01c8063095ea7b31461005157806323b872dd1461006d5780636352211e1461008957806370a08231146100b9575b600080fd5b61006b60048036038101906100669190610928565b6100e9565b005b61008760048036038101906100829190610968565b610284565b005b6100a3600480360381019061009e91906109bb565b6102dd565b6040516100b091906109f7565b60405180910390f35b6100d360048036038101906100ce9190610a12565b610361565b6040516100e09190610a4e565b60405180910390f35b60006100f4826102dd565b90508073ffffffffffffffffffffffffffffffffffffffff168373ffffffffffffffffffffffffffffffffffffffff1603610164576040517f08c379a000000000000000000000000000000000000000000000000000000000815260040161015b90610aec565b60405180910390fd5b8073ffffffffffffffffffffffffffffffffffffffff163373ffffffffffffffffffffffffffffffffffffffff16146101d2576040517f08c379a00000000000000000000000000000000000000000000000000000000081526004016101c990610b7e565b60405180910390fd5b826002600084815260200190815260200160002060006101000a81548173ffffffffffffffffffffffffffffffffffffffff021916908373ffffffffffffffffffffffffffffffffffffffff160217905550818373ffffffffffffffffffffffffffffffffffffffff168273ffffffffffffffffffffffffffffffffffffffff167f8c5be1e5ebec7d5bd14f71427d1e84f3dd0314c0f7b2291e5b200ac8c7c3b92560405160405180910390a4505050565b61028e3382610418565b6102cd576040517f08c379a00000000000000000000000000000000000000000000000000000000081526004016102c490610c10565b60405180910390fd5b6102d883838361050f565b505050565b60006102e882610799565b610327576040517f08c379a000000000000000000000000000000000000000000000000000000000815260040161031e90610c7c565b60405180910390fd5b60008083815260200190815260200160002060009054906101000a900473ffffffffffffffffffffffffffffffffffffffff169050919050565b60008073ffffffffffffffffffffffffffffffffffffffff168273ffffffffffffffffffffffffffffffffffffffff16036103d1576040517f08c379a00000000000000000000000000000000000000000000000000000000081526004016103c890610ce8565b60405180910390fd5b600160008373ffffffffffffffffffffffffffffffffffffffff1673ffffffffffffffffffffffffffffffffffffffff168152602001908152602001600020549050919050565b600061042382610799565b610462576040517f08c379a000000000000000000000000000000000000000000000000000000000815260040161045990610d54565b60405180910390fd5b600080600084815260200190815260200160002060009054906101000a900473ffffffffffffffffffffffffffffffffffffffff1690508073ffffffffffffffffffffffffffffffffffffffff168473ffffffffffffffffffffffffffffffffffffffff16148061050657508373ffffffffffffffffffffffffffffffffffffffff166104ee8461080a565b73ffffffffffffffffffffffffffffffffffffffff16145b91505092915050565b600073ffffffffffffffffffffffffffffffffffffffff168273ffffffffffffffffffffffffffffffffffffffff160361057e576040517f08c379a000000000000000000000000000000000000000000000000000000000815260040161057590610dc0565b60405180910390fd5b61058781610799565b6105c6576040517f08c379a00000000000000000000000000000000000000000000000000000000081526004016105bd90610c7c565b60405180910390fd5b6105cf816102dd565b73ffffffffffffffffffffffffffffffffffffffff168373ffffffffffffffffffffffffffffffffffffffff161461063c576040517f08c379a000000000000000000000000000000000000000000000000000000000815260040161063390610e52565b60405180910390fd5b8160008083815260200190815260200160002060006101000a81548173ffffffffffffffffffffffffffffffffffffffff021916908373ffffffffffffffffffffffffffffffffffffffff16021790555060018060008573ffffffffffffffffffffffffffffffffffffffff1673ffffffffffffffffffffffffffffffffffffffff16815260200190815260200160002060008282546106dc9190610ea1565b9250508190555060018060008473ffffffffffffffffffffffffffffffffffffffff1673ffffffffffffffffffffffffffffffffffffffff16815260200190815260200160002060008282546107329190610ed5565b92505081905550808273ffffffffffffffffffffffffffffffffffffffff168473ffffffffffffffffffffffffffffffffffffffff167fddf252ad1be2c89b69c2b068fc378daa952ba7f163c4a11628f55a4df523b3ef60405160405180910390a4505050565b60008060008084815260200190815260200160002060009054906101000a900473ffffffffffffffffffffffffffffffffffffffff169050600073ffffffffffffffffffffffffffffffffffffffff168173ffffffffffffffffffffffffffffffffffffffff161415915050919050565b600061081582610799565b610854576040517f08c379a000000000000000000000000000000000000000000000000000000000815260040161084b90610f9d565b60405180910390fd5b6002600083815260200190815260200160002060009054906101000a900473ffffffffffffffffffffffffffffffffffffffff169050919050565b600080fd5b600073ffffffffffffffffffffffffffffffffffffffff82169050919050565b60006108bf82610894565b9050919050565b6108cf816108b4565b81146108da57600080fd5b50565b6000813590506108ec816108c6565b92915050565b6000819050919050565b610905816108f2565b811461091057600080fd5b50565b600081359050610922816108fc565b92915050565b6000806040838503121561093f5761093e61088f565b5b600061094d858286016108dd565b925050602061095e85828601610913565b9150509250929050565b6000806000606084860312156109815761098061088f565b5b600061098f868287016108dd565b93505060206109a0868287016108dd565b92505060406109b186828701610913565b9150509250925092565b6000602082840312156109d1576109d061088f565b5b60006109df84828501610913565b91505092915050565b6109f1816108b4565b82525050565b6000602082019050610a0c60008301846109e8565b92915050565b600060208284031215610a2857610a2761088f565b5b6000610a36848285016108dd565b91505092915050565b610a48816108f2565b82525050565b6000602082019050610a636000830184610a3f565b92915050565b600082825260208201905092915050565b7f455243373231202d204572726f722c20747279696e6720746f20617070726f7660008201527f652063757272656e74206f776e65722100000000000000000000000000000000602082015250565b6000610ad6603083610a69565b9150610ae182610a7a565b604082019050919050565b60006020820190508181036000830152610b0581610ac9565b9050919050565b7f455243373231202d204572726f722c206e6f74207468652063757272656e742060008201527f6f776e65722e2043616e6e6f7420617070726f76652100000000000000000000602082015250565b6000610b68603683610a69565b9150610b7382610b0c565b604082019050919050565b60006020820190508181036000830152610b9781610b5b565b9050919050565b7f455243373231202d204572726f72206e6f74206f776e6572206f72206170707260008201527f6f76656420666f72207468697320746f6b656e00000000000000000000000000602082015250565b6000610bfa603383610a69565b9150610c0582610b9e565b604082019050919050565b60006020820190508181036000830152610c2981610bed565b9050919050565b7f4552433732313a20546f6b656e20646f6573206e6f7420657869737421000000600082015250565b6000610c66601d83610a69565b9150610c7182610c30565b602082019050919050565b60006020820190508181036000830152610c9581610c59565b9050919050565b7f4552433732313a204f776e6572207175657279206973206e6f742076616c6964600082015250565b6000610cd2602083610a69565b9150610cdd82610c9c565b602082019050919050565b60006020820190508181036000830152610d0181610cc5565b9050919050565b7f546f6b656e20646f6573206e6f74206578697374000000000000000000000000600082015250565b6000610d3e601483610a69565b9150610d4982610d08565b602082019050919050565b60006020820190508181036000830152610d6d81610d31565b9050919050565b7f4552433732313a20696e76616c696420746f2061646472657373000000000000600082015250565b6000610daa601a83610a69565b9150610db582610d74565b602082019050919050565b60006020820190508181036000830152610dd981610d9d565b9050919050565b7f4552433732313a2066726f6d2061646472657373206973206e6f74207468652060008201527f6f776e6572206f66207468697320746f6b656e00000000000000000000000000602082015250565b6000610e3c603383610a69565b9150610e4782610de0565b604082019050919050565b60006020820190508181036000830152610e6b81610e2f565b9050919050565b7f4e487b7100000000000000000000000000000000000000000000000000000000600052601160045260246000fd5b6000610eac826108f2565b9150610eb7836108f2565b925082821015610eca57610ec9610e72565b5b828203905092915050565b6000610ee0826108f2565b9150610eeb836108f2565b9250827fffffffffffffffffffffffffffffffffffffffffffffffffffffffffffffffff03821115610f2057610f1f610e72565b5b828201905092915050565b7f4552433732313a20617070726f76656420717565727920666f72206e6f6e657860008201527f697374656e7420746f6b656e0000000000000000000000000000000000000000602082015250565b6000610f87602c83610a69565b9150610f9282610f2b565b604082019050919050565b60006020820190508181036000830152610fb681610f7a565b905091905056fea26469706673582212209649227529c7028b22a6ccea8f12fb7ecbec01054f2696480c829861d968a38164736f6c634300080f0033",
  "immutableReferences": {},
  "source": "// SPDX-License-Identifier: MIT\npragma solidity ^0.8.0;\n\ncontract ERC721 {\n\n    event Transfer(\n        address indexed from,\n        address indexed to,\n        uint256 indexed tokenId\n    );\n\n    event Approval(\n        address indexed owner,\n        address indexed approved,\n        uint256 indexed tokenId\n    );\n\n    // Mapping from token id to the owner\n    mapping(uint256 => address) private _tokenOwner;\n    // Mapping from owner to number of owned tokens\n    mapping(address => uint256) private _ownedTokensCount;\n    // Mapping from token id to approved addresses\n    mapping(uint256 => address) private _tokenApprovals;\n\n    function _exists(uint256 tokenId) internal view returns(bool) {\n        address owner = _tokenOwner[tokenId];\n        return owner != address(0);\n    }\n\n    function _mint(address to, uint256 tokenId) internal virtual {\n        require(\n            to != address(0), \n            'ERC721: minting to a zero address'\n        );\n        require(\n            !_exists(tokenId),\n            'ERC721: token already minted'\n        );\n        _tokenOwner[tokenId] = to;\n        _ownedTokensCount[to] += 1;\n\n        emit Transfer(address(0), to, tokenId);\n    }\n\n    function _transferFrom(address _from, address _to, uint256 _tokenId) internal {\n        require(_to != address(0), 'ERC721: invalid to address');\n        require(_exists(_tokenId), 'ERC721: Token does not exist!');\n        require(_from == ownerOf(_tokenId), 'ERC721: from address is not the owner of this token');\n\n        _tokenOwner[_tokenId] = _to;\n        _ownedTokensCount[_from] -= 1;\n        _ownedTokensCount[_to] += 1;\n\n        emit Transfer(_from, _to, _tokenId);\n    }\n\n    function transferFrom(address _from, address _to, uint256 _tokenId) public {\n        require(isApprovedOrOwner(msg.sender, _tokenId),  'ERC721 - Error not owner or approved for this token');\n        _transferFrom(_from, _to, _tokenId);\n    }\n\n    function approve(address _to, uint256 _tokenId) public {\n        address owner = ownerOf(_tokenId);\n\n        require(_to != owner, 'ERC721 - Error, trying to approve current owner!');\n        require(msg.sender == owner, 'ERC721 - Error, not the current owner. Cannot approve!');\n\n        _tokenApprovals[_tokenId] = _to;\n        emit Approval(owner, _to, _tokenId);\n    }\n\n    function isApprovedOrOwner(address spender, uint256 tokenId) internal view returns (bool) {\n        require(_exists(tokenId), 'Token does not exist');\n        address owner = _tokenOwner[tokenId];\n        return(spender == owner || getApproved(tokenId) == spender);\n\n    }\n\n    function getApproved(uint256 tokenId) internal view returns (address) {\n        require(_exists(tokenId), \"ERC721: approved query for nonexistent token\");\n        return _tokenApprovals[tokenId];\n    }\n\n    function balanceOf(address _owner) public view returns(uint256) {\n        require(\n            _owner != address(0),\n            'ERC721: Owner query is not valid'\n        );\n        return _ownedTokensCount[_owner];\n    }\n\n    function ownerOf(uint256 tokenId) public view returns(address) {\n        require(_exists(tokenId), 'ERC721: Token does not exist!');\n        return _tokenOwner[tokenId];\n    }\n}",
  "sourcePath": "/Users/asfour/workspace/personal/nft_study/nft-marketplace-starter-kit/src/contracts/ERC721.sol",
  "compiler": {
    "name": "solc",
    "version": "0.8.15+commit.e14f2714.Emscripten.clang"
  },
  "schemaVersion": "3.4.7",
  "updatedAt": "2022-06-20T00:18:56.687Z",
  "devdoc": {
    "kind": "dev",
    "methods": {},
    "version": 1
  },
  "userdoc": {
    "kind": "user",
    "methods": {},
    "version": 1
  }
}