{
  "contractName": "ERC721Connector",
  "abi": [
    {
      "inputs": [
        {
          "internalType": "string",
          "name": "name",
          "type": "string"
        },
        {
          "internalType": "string",
          "name": "symbol",
          "type": "string"
        }
      ],
      "stateMutability": "nonpayable",
      "type": "constructor"
    },
    {
      "anonymous": false,
      "inputs": [
        {
          "indexed": true,
          "internalType": "address",
          "name": "_owner",
          "type": "address"
        },
        {
          "indexed": true,
          "internalType": "address",
          "name": "_approved",
          "type": "address"
        },
        {
          "indexed": true,
          "internalType": "uint256",
          "name": "_tokenId",
          "type": "uint256"
        }
      ],
      "name": "Approval",
      "type": "event"
    },
    {
      "anonymous": false,
      "inputs": [
        {
          "indexed": true,
          "internalType": "address",
          "name": "_from",
          "type": "address"
        },
        {
          "indexed": true,
          "internalType": "address",
          "name": "_to",
          "type": "address"
        },
        {
          "indexed": true,
          "internalType": "uint256",
          "name": "_tokenId",
          "type": "uint256"
        }
      ],
      "name": "Transfer",
      "type": "event"
    },
    {
      "inputs": [
        {
          "internalType": "address",
          "name": "_to",
          "type": "address"
        },
        {
          "internalType": "uint256",
          "name": "_tokenId",
          "type": "uint256"
        }
      ],
      "name": "approve",
      "outputs": [],
      "stateMutability": "nonpayable",
      "type": "function"
    },
    {
      "inputs": [
        {
          "internalType": "address",
          "name": "_owner",
          "type": "address"
        }
      ],
      "name": "balanceOf",
      "outputs": [
        {
          "internalType": "uint256",
          "name": "",
          "type": "uint256"
        }
      ],
      "stateMutability": "view",
      "type": "function"
    },
    {
      "inputs": [],
      "name": "name",
      "outputs": [
        {
          "internalType": "string",
          "name": "",
          "type": "string"
        }
      ],
      "stateMutability": "view",
      "type": "function"
    },
    {
      "inputs": [
        {
          "internalType": "uint256",
          "name": "tokenId",
          "type": "uint256"
        }
      ],
      "name": "ownerOf",
      "outputs": [
        {
          "internalType": "address",
          "name": "",
          "type": "address"
        }
      ],
      "stateMutability": "view",
      "type": "function"
    },
    {
      "inputs": [
        {
          "internalType": "bytes4",
          "name": "interfaceID",
          "type": "bytes4"
        }
      ],
      "name": "supportsInterface",
      "outputs": [
        {
          "internalType": "bool",
          "name": "",
          "type": "bool"
        }
      ],
      "stateMutability": "view",
      "type": "function"
    },
    {
      "inputs": [],
      "name": "symbol",
      "outputs": [
        {
          "internalType": "string",
          "name": "",
          "type": "string"
        }
      ],
      "stateMutability": "view",
      "type": "function"
    },
    {
      "inputs": [
        {
          "internalType": "uint256",
          "name": "_index",
          "type": "uint256"
        }
      ],
      "name": "tokenByIndex",
      "outputs": [
        {
          "internalType": "uint256",
          "name": "",
          "type": "uint256"
        }
      ],
      "stateMutability": "view",
      "type": "function"
    },
    {
      "inputs": [
        {
          "internalType": "address",
          "name": "_owner",
          "type": "address"
        },
        {
          "internalType": "uint256",
          "name": "_index",
          "type": "uint256"
        }
      ],
      "name": "tokenOfOwnerByIndex",
      "outputs": [
        {
          "internalType": "uint256",
          "name": "",
          "type": "uint256"
        }
      ],
      "stateMutability": "view",
      "type": "function"
    },
    {
      "inputs": [],
      "name": "totalSupply",
      "outputs": [
        {
          "internalType": "uint256",
          "name": "",
          "type": "uint256"
        }
      ],
      "stateMutability": "view",
      "type": "function"
    },
    {
      "inputs": [
        {
          "internalType": "address",
          "name": "_from",
          "type": "address"
        },
        {
          "internalType": "address",
          "name": "_to",
          "type": "address"
        },
        {
          "internalType": "uint256",
          "name": "_tokenId",
          "type": "uint256"
        }
      ],
      "name": "transferFrom",
      "outputs": [],
      "stateMutability": "nonpayable",
      "type": "function"
    }
  ],
  "bytecode": "0x60806040523480156200001157600080fd5b506040516200211d3803806200211d833981810160405281019062000037919062000449565b81816200006a7f01ffc9a7a5cef8baa21ed3c5c0d7e23accb804b619e9333b597f47a0d84076e2620001d560201b60201c565b81600190816200007b919062000719565b5080600290816200008d919062000719565b50620000e17f13b182f4c0e5b2efbac0efe6cf6d756c8b89f4b79c5707a043ed9ea740574ee97f7feaf19471f34a12a7eaf32d5f3090aa2260ea8624dc8a138e74e0bf0f62307618620001d560201b60201c565b5050620001587f22c82707ba960a14c7592ffb6b8cfaa073fed0048a84cc7fa41f6b5bd8e7f2e47f3a6eb71757dfc6e784c1459d26270140c2c147d95ca985c80026fc5301c3eca17f8a7e378434598edc36d108689a030cbc9d7d465de4f74c71bae1028eed6a881b1818620001d560201b60201c565b620001cd7f8230223f691b981717299fae9549350a0d894555723531f02108b1f522c1a7977f6da5e1284143cdd2d15038a59bde3be031250f00291d64494c12d967b3a4e0c37fc53637662700e6c65104059db8bba34439e0c32483ab7c34e3ccae52c73954951818620001d560201b60201c565b505062000883565b63ffffffff60e01b817bffffffffffffffffffffffffffffffffffffffffffffffffffffffff19160362000240576040517f08c379a0000000000000000000000000000000000000000000000000000000008152600401620002379062000861565b60405180910390fd5b6001600080837bffffffffffffffffffffffffffffffffffffffffffffffffffffffff19167bffffffffffffffffffffffffffffffffffffffffffffffffffffffff1916815260200190815260200160002060006101000a81548160ff02191690831515021790555050565b6000604051905090565b600080fd5b600080fd5b600080fd5b600080fd5b6000601f19601f8301169050919050565b7f4e487b7100000000000000000000000000000000000000000000000000000000600052604160045260246000fd5b6200031582620002ca565b810181811067ffffffffffffffff82111715620003375762000336620002db565b5b80604052505050565b60006200034c620002ac565b90506200035a82826200030a565b919050565b600067ffffffffffffffff8211156200037d576200037c620002db565b5b6200038882620002ca565b9050602081019050919050565b60005b83811015620003b557808201518184015260208101905062000398565b83811115620003c5576000848401525b50505050565b6000620003e2620003dc846200035f565b62000340565b905082815260208101848484011115620004015762000400620002c5565b5b6200040e84828562000395565b509392505050565b600082601f8301126200042e576200042d620002c0565b5b815162000440848260208601620003cb565b91505092915050565b60008060408385031215620004635762000462620002b6565b5b600083015167ffffffffffffffff811115620004845762000483620002bb565b5b620004928582860162000416565b925050602083015167ffffffffffffffff811115620004b657620004b5620002bb565b5b620004c48582860162000416565b9150509250929050565b600081519050919050565b7f4e487b7100000000000000000000000000000000000000000000000000000000600052602260045260246000fd5b600060028204905060018216806200052157607f821691505b602082108103620005375762000536620004d9565b5b50919050565b60008190508160005260206000209050919050565b60006020601f8301049050919050565b600082821b905092915050565b600060088302620005a17fffffffffffffffffffffffffffffffffffffffffffffffffffffffffffffffff8262000562565b620005ad868362000562565b95508019841693508086168417925050509392505050565b6000819050919050565b6000819050919050565b6000620005fa620005f4620005ee84620005c5565b620005cf565b620005c5565b9050919050565b6000819050919050565b6200061683620005d9565b6200062e620006258262000601565b8484546200056f565b825550505050565b600090565b6200064562000636565b620006528184846200060b565b505050565b5b818110156200067a576200066e6000826200063b565b60018101905062000658565b5050565b601f821115620006c95762000693816200053d565b6200069e8462000552565b81016020851015620006ae578190505b620006c6620006bd8562000552565b83018262000657565b50505b505050565b600082821c905092915050565b6000620006ee60001984600802620006ce565b1980831691505092915050565b6000620007098383620006db565b9150826002028217905092915050565b6200072482620004ce565b67ffffffffffffffff81111562000740576200073f620002db565b5b6200074c825462000508565b620007598282856200067e565b600060209050601f8311600181146200079157600084156200077c578287015190505b620007888582620006fb565b865550620007f8565b601f198416620007a1866200053d565b60005b82811015620007cb57848901518255600182019150602085019450602081019050620007a4565b86831015620007eb5784890151620007e7601f891682620006db565b8355505b6001600288020188555050505b505050505050565b600082825260208201905092915050565b7f455243313635202d20696e76616c696420696e74657266616365496400000000600082015250565b600062000849601c8362000800565b9150620008568262000811565b602082019050919050565b600060208201905081810360008301526200087c816200083a565b9050919050565b61188a80620008936000396000f3fe608060405234801561001057600080fd5b506004361061009e5760003560e01c80632f745c59116100665780632f745c59146101475780634f6ccce7146101775780636352211e146101a757806370a08231146101d757806395d89b41146102075761009e565b806301ffc9a7146100a357806306fdde03146100d3578063095ea7b3146100f157806318160ddd1461010d57806323b872dd1461012b575b600080fd5b6100bd60048036038101906100b89190610ddf565b610225565b6040516100ca9190610e27565b60405180910390f35b6100db61028c565b6040516100e89190610edb565b60405180910390f35b61010b60048036038101906101069190610f91565b61031e565b005b6101156104b9565b6040516101229190610fe0565b60405180910390f35b61014560048036038101906101409190610ffb565b6104c6565b005b610161600480360381019061015c9190610f91565b61051f565b60405161016e9190610fe0565b60405180910390f35b610191600480360381019061018c919061104e565b6105cf565b60405161019e9190610fe0565b60405180910390f35b6101c160048036038101906101bc919061104e565b610640565b6040516101ce919061108a565b60405180910390f35b6101f160048036038101906101ec91906110a5565b6106c5565b6040516101fe9190610fe0565b60405180910390f35b61020f610783565b60405161021c9190610edb565b60405180910390f35b6000806000837bffffffffffffffffffffffffffffffffffffffffffffffffffffffff19167bffffffffffffffffffffffffffffffffffffffffffffffffffffffff1916815260200190815260200160002060009054906101000a900460ff169050919050565b60606001805461029b90611101565b80601f01602080910402602001604051908101604052809291908181526020018280546102c790611101565b80156103145780601f106102e957610100808354040283529160200191610314565b820191906000526020600020905b8154815290600101906020018083116102f757829003601f168201915b5050505050905090565b600061032982610640565b90508073ffffffffffffffffffffffffffffffffffffffff168373ffffffffffffffffffffffffffffffffffffffff1603610399576040517f08c379a0000000000000000000000000000000000000000000000000000000008152600401610390906111a4565b60405180910390fd5b8073ffffffffffffffffffffffffffffffffffffffff163373ffffffffffffffffffffffffffffffffffffffff1614610407576040517f08c379a00000000000000000000000000000000000000000000000000000000081526004016103fe90611236565b60405180910390fd5b826005600084815260200190815260200160002060006101000a81548173ffffffffffffffffffffffffffffffffffffffff021916908373ffffffffffffffffffffffffffffffffffffffff160217905550818373ffffffffffffffffffffffffffffffffffffffff168273ffffffffffffffffffffffffffffffffffffffff167f8c5be1e5ebec7d5bd14f71427d1e84f3dd0314c0f7b2291e5b200ac8c7c3b92560405160405180910390a4505050565b6000600680549050905090565b6104d03382610815565b61050f576040517f08c379a0000000000000000000000000000000000000000000000000000000008152600401610506906112c8565b60405180910390fd5b61051a83838361090d565b505050565b600061052a836106c5565b821061056b576040517f08c379a000000000000000000000000000000000000000000000000000000000815260040161056290611334565b60405180910390fd5b600860008473ffffffffffffffffffffffffffffffffffffffff1673ffffffffffffffffffffffffffffffffffffffff16815260200190815260200160002082815481106105bc576105bb611354565b5b9060005260206000200154905092915050565b60006105d96104b9565b821061061a576040517f08c379a0000000000000000000000000000000000000000000000000000000008152600401610611906113cf565b60405180910390fd5b6006828154811061062e5761062d611354565b5b90600052602060002001549050919050565b600061064b82610b7a565b61068a576040517f08c379a00000000000000000000000000000000000000000000000000000000081526004016106819061143b565b60405180910390fd5b6003600083815260200190815260200160002060009054906101000a900473ffffffffffffffffffffffffffffffffffffffff169050919050565b60008073ffffffffffffffffffffffffffffffffffffffff168273ffffffffffffffffffffffffffffffffffffffff1603610735576040517f08c379a000000000000000000000000000000000000000000000000000000000815260040161072c906114a7565b60405180910390fd5b61077c600460008473ffffffffffffffffffffffffffffffffffffffff1673ffffffffffffffffffffffffffffffffffffffff168152602001908152602001600020610bec565b9050919050565b60606002805461079290611101565b80601f01602080910402602001604051908101604052809291908181526020018280546107be90611101565b801561080b5780601f106107e05761010080835404028352916020019161080b565b820191906000526020600020905b8154815290600101906020018083116107ee57829003601f168201915b5050505050905090565b600061082082610b7a565b61085f576040517f08c379a000000000000000000000000000000000000000000000000000000000815260040161085690611513565b60405180910390fd5b60006003600084815260200190815260200160002060009054906101000a900473ffffffffffffffffffffffffffffffffffffffff1690508073ffffffffffffffffffffffffffffffffffffffff168473ffffffffffffffffffffffffffffffffffffffff16148061090457508373ffffffffffffffffffffffffffffffffffffffff166108ec84610bfa565b73ffffffffffffffffffffffffffffffffffffffff16145b91505092915050565b600073ffffffffffffffffffffffffffffffffffffffff168273ffffffffffffffffffffffffffffffffffffffff160361097c576040517f08c379a00000000000000000000000000000000000000000000000000000000081526004016109739061157f565b60405180910390fd5b61098581610b7a565b6109c4576040517f08c379a00000000000000000000000000000000000000000000000000000000081526004016109bb9061143b565b60405180910390fd5b6109cd81610640565b73ffffffffffffffffffffffffffffffffffffffff168373ffffffffffffffffffffffffffffffffffffffff1614610a3a576040517f08c379a0000000000000000000000000000000000000000000000000000000008152600401610a3190611611565b60405180910390fd5b816003600083815260200190815260200160002060006101000a81548173ffffffffffffffffffffffffffffffffffffffff021916908373ffffffffffffffffffffffffffffffffffffffff160217905550610ad3600460008573ffffffffffffffffffffffffffffffffffffffff1673ffffffffffffffffffffffffffffffffffffffff168152602001908152602001600020610c7f565b610b1a600460008473ffffffffffffffffffffffffffffffffffffffff1673ffffffffffffffffffffffffffffffffffffffff168152602001908152602001600020610ca2565b808273ffffffffffffffffffffffffffffffffffffffff168473ffffffffffffffffffffffffffffffffffffffff167fddf252ad1be2c89b69c2b068fc378daa952ba7f163c4a11628f55a4df523b3ef60405160405180910390a4505050565b6000806003600084815260200190815260200160002060009054906101000a900473ffffffffffffffffffffffffffffffffffffffff169050600073ffffffffffffffffffffffffffffffffffffffff168173ffffffffffffffffffffffffffffffffffffffff161415915050919050565b600081600001549050919050565b6000610c0582610b7a565b610c44576040517f08c379a0000000000000000000000000000000000000000000000000000000008152600401610c3b906116a3565b60405180910390fd5b6005600083815260200190815260200160002060009054906101000a900473ffffffffffffffffffffffffffffffffffffffff169050919050565b610c9760018260000154610cc590919063ffffffff16565b816000018190555050565b610cba60018260000154610d2490919063ffffffff16565b816000018190555050565b600082821115610d0a576040517f08c379a0000000000000000000000000000000000000000000000000000000008152600401610d019061170f565b60405180910390fd5b60008284610d18919061175e565b90508091505092915050565b6000808284610d339190611792565b905083811015610d78576040517f08c379a0000000000000000000000000000000000000000000000000000000008152600401610d6f90611834565b60405180910390fd5b8091505092915050565b600080fd5b60007fffffffff0000000000000000000000000000000000000000000000000000000082169050919050565b610dbc81610d87565b8114610dc757600080fd5b50565b600081359050610dd981610db3565b92915050565b600060208284031215610df557610df4610d82565b5b6000610e0384828501610dca565b91505092915050565b60008115159050919050565b610e2181610e0c565b82525050565b6000602082019050610e3c6000830184610e18565b92915050565b600081519050919050565b600082825260208201905092915050565b60005b83811015610e7c578082015181840152602081019050610e61565b83811115610e8b576000848401525b50505050565b6000601f19601f8301169050919050565b6000610ead82610e42565b610eb78185610e4d565b9350610ec7818560208601610e5e565b610ed081610e91565b840191505092915050565b60006020820190508181036000830152610ef58184610ea2565b905092915050565b600073ffffffffffffffffffffffffffffffffffffffff82169050919050565b6000610f2882610efd565b9050919050565b610f3881610f1d565b8114610f4357600080fd5b50565b600081359050610f5581610f2f565b92915050565b6000819050919050565b610f6e81610f5b565b8114610f7957600080fd5b50565b600081359050610f8b81610f65565b92915050565b60008060408385031215610fa857610fa7610d82565b5b6000610fb685828601610f46565b9250506020610fc785828601610f7c565b9150509250929050565b610fda81610f5b565b82525050565b6000602082019050610ff56000830184610fd1565b92915050565b60008060006060848603121561101457611013610d82565b5b600061102286828701610f46565b935050602061103386828701610f46565b925050604061104486828701610f7c565b9150509250925092565b60006020828403121561106457611063610d82565b5b600061107284828501610f7c565b91505092915050565b61108481610f1d565b82525050565b600060208201905061109f600083018461107b565b92915050565b6000602082840312156110bb576110ba610d82565b5b60006110c984828501610f46565b91505092915050565b7f4e487b7100000000000000000000000000000000000000000000000000000000600052602260045260246000fd5b6000600282049050600182168061111957607f821691505b60208210810361112c5761112b6110d2565b5b50919050565b7f455243373231202d204572726f722c20747279696e6720746f20617070726f7660008201527f652063757272656e74206f776e65722100000000000000000000000000000000602082015250565b600061118e603083610e4d565b915061119982611132565b604082019050919050565b600060208201905081810360008301526111bd81611181565b9050919050565b7f455243373231202d204572726f722c206e6f74207468652063757272656e742060008201527f6f776e65722e2043616e6e6f7420617070726f76652100000000000000000000602082015250565b6000611220603683610e4d565b915061122b826111c4565b604082019050919050565b6000602082019050818103600083015261124f81611213565b9050919050565b7f455243373231202d204572726f72206e6f74206f776e6572206f72206170707260008201527f6f76656420666f72207468697320746f6b656e00000000000000000000000000602082015250565b60006112b2603383610e4d565b91506112bd82611256565b604082019050919050565b600060208201905081810360008301526112e1816112a5565b9050919050565b7f4f776e657220696e646578206973206f7574206f6620626f756e640000000000600082015250565b600061131e601b83610e4d565b9150611329826112e8565b602082019050919050565b6000602082019050818103600083015261134d81611311565b9050919050565b7f4e487b7100000000000000000000000000000000000000000000000000000000600052603260045260246000fd5b7f476c6f62616c20696e646578206973206f7574206f6620626f756e6473000000600082015250565b60006113b9601d83610e4d565b91506113c482611383565b602082019050919050565b600060208201905081810360008301526113e8816113ac565b9050919050565b7f4552433732313a20546f6b656e20646f6573206e6f7420657869737421000000600082015250565b6000611425601d83610e4d565b9150611430826113ef565b602082019050919050565b6000602082019050818103600083015261145481611418565b9050919050565b7f4552433732313a204f776e6572207175657279206973206e6f742076616c6964600082015250565b6000611491602083610e4d565b915061149c8261145b565b602082019050919050565b600060208201905081810360008301526114c081611484565b9050919050565b7f546f6b656e20646f6573206e6f74206578697374000000000000000000000000600082015250565b60006114fd601483610e4d565b9150611508826114c7565b602082019050919050565b6000602082019050818103600083015261152c816114f0565b9050919050565b7f4552433732313a20696e76616c696420746f2061646472657373000000000000600082015250565b6000611569601a83610e4d565b915061157482611533565b602082019050919050565b600060208201905081810360008301526115988161155c565b9050919050565b7f4552433732313a2066726f6d2061646472657373206973206e6f74207468652060008201527f6f776e6572206f66207468697320746f6b656e00000000000000000000000000602082015250565b60006115fb603383610e4d565b91506116068261159f565b604082019050919050565b6000602082019050818103600083015261162a816115ee565b9050919050565b7f4552433732313a20617070726f76656420717565727920666f72206e6f6e657860008201527f697374656e7420746f6b656e0000000000000000000000000000000000000000602082015250565b600061168d602c83610e4d565b915061169882611631565b604082019050919050565b600060208201905081810360008301526116bc81611680565b9050919050565b7f536166656d6174683a207375627472616374696f6e206f766572666c6f770000600082015250565b60006116f9601e83610e4d565b9150611704826116c3565b602082019050919050565b60006020820190508181036000830152611728816116ec565b9050919050565b7f4e487b7100000000000000000000000000000000000000000000000000000000600052601160045260246000fd5b600061176982610f5b565b915061177483610f5b565b9250828210156117875761178661172f565b5b828203905092915050565b600061179d82610f5b565b91506117a883610f5b565b9250827fffffffffffffffffffffffffffffffffffffffffffffffffffffffffffffffff038211156117dd576117dc61172f565b5b828201905092915050565b7f536166656d6174683a206164646974696f6e206f766572666c6f770000000000600082015250565b600061181e601b83610e4d565b9150611829826117e8565b602082019050919050565b6000602082019050818103600083015261184d81611811565b905091905056fea26469706673582212201ea6770e3a957f4a4fc584cc74efd23ffebf0f3ddd0587f0f437ed51d1785ad364736f6c634300080f0033",
  "immutableReferences": {},
  "source": "// SPDX-License-Identifier: MIT\npragma solidity ^0.8.0;\n\nimport \"./ERC721Metadata.sol\";\nimport \"./ERC721Enumerable.sol\";\n\ncontract ERC721Connector is ERC721Metadata, ERC721Enumerable {\n    constructor(string memory name, string memory symbol)\n        ERC721Metadata(name, symbol)\n    {}\n}\n",
  "sourcePath": "/Users/asfour/workspace/personal/nft_study/nft-marketplace-starter-kit/src/contracts/ERC721Connector.sol",
  "compiler": {
    "name": "solc",
    "version": "0.8.15+commit.e14f2714.Emscripten.clang"
  },
  "schemaVersion": "3.4.7",
  "updatedAt": "2022-06-26T23:02:13.946Z",
  "devdoc": {
    "kind": "dev",
    "methods": {
      "balanceOf(address)": {
        "details": "NFTs assigned to the zero address are considered invalid, and this  function throws for queries about the zero address.",
        "params": {
          "_owner": "An address for whom to query the balance"
        },
        "returns": {
          "_0": "The number of NFTs owned by `_owner`, possibly zero"
        }
      },
      "supportsInterface(bytes4)": {
        "details": "Interface identification is specified in ERC-165. This function  uses less than 30,000 gas.",
        "params": {
          "interfaceID": "The interface identifier, as specified in ERC-165"
        },
        "returns": {
          "_0": "`true` if the contract implements `interfaceID` and  `interfaceID` is not 0xffffffff, `false` otherwise"
        }
      },
      "transferFrom(address,address,uint256)": {
        "details": "Throws unless `msg.sender` is the current owner, an authorized  operator, or the approved address for this NFT. Throws if `_from` is  not the current owner. Throws if `_to` is the zero address. Throws if  `_tokenId` is not a valid NFT.",
        "params": {
          "_from": "The current owner of the NFT",
          "_to": "The new owner",
          "_tokenId": "The NFT to transfer"
        }
      }
    },
    "version": 1
  },
  "userdoc": {
    "kind": "user",
    "methods": {
      "balanceOf(address)": {
        "notice": "Count all NFTs assigned to an owner"
      },
      "supportsInterface(bytes4)": {
        "notice": "Query if a contract implements an interface"
      },
      "transferFrom(address,address,uint256)": {
        "notice": "Transfer ownership of an NFT -- THE CALLER IS RESPONSIBLE  TO CONFIRM THAT `_to` IS CAPABLE OF RECEIVING NFTS OR ELSE  THEY MAY BE PERMANENTLY LOST"
      }
    },
    "version": 1
  }
}