{
  "contractName": "ERC721",
  "abi": [
    {
      "inputs": [],
      "stateMutability": "nonpayable",
      "type": "constructor"
    },
    {
      "anonymous": false,
      "inputs": [
        {
          "indexed": true,
          "internalType": "address",
          "name": "_owner",
          "type": "address"
        },
        {
          "indexed": true,
          "internalType": "address",
          "name": "_approved",
          "type": "address"
        },
        {
          "indexed": true,
          "internalType": "uint256",
          "name": "_tokenId",
          "type": "uint256"
        }
      ],
      "name": "Approval",
      "type": "event"
    },
    {
      "anonymous": false,
      "inputs": [
        {
          "indexed": true,
          "internalType": "address",
          "name": "_from",
          "type": "address"
        },
        {
          "indexed": true,
          "internalType": "address",
          "name": "_to",
          "type": "address"
        },
        {
          "indexed": true,
          "internalType": "uint256",
          "name": "_tokenId",
          "type": "uint256"
        }
      ],
      "name": "Transfer",
      "type": "event"
    },
    {
      "inputs": [
        {
          "internalType": "bytes4",
          "name": "interfaceID",
          "type": "bytes4"
        }
      ],
      "name": "supportsInterface",
      "outputs": [
        {
          "internalType": "bool",
          "name": "",
          "type": "bool"
        }
      ],
      "stateMutability": "view",
      "type": "function"
    },
    {
      "inputs": [
        {
          "internalType": "address",
          "name": "_from",
          "type": "address"
        },
        {
          "internalType": "address",
          "name": "_to",
          "type": "address"
        },
        {
          "internalType": "uint256",
          "name": "_tokenId",
          "type": "uint256"
        }
      ],
      "name": "transferFrom",
      "outputs": [],
      "stateMutability": "nonpayable",
      "type": "function"
    },
    {
      "inputs": [
        {
          "internalType": "address",
          "name": "_to",
          "type": "address"
        },
        {
          "internalType": "uint256",
          "name": "_tokenId",
          "type": "uint256"
        }
      ],
      "name": "approve",
      "outputs": [],
      "stateMutability": "nonpayable",
      "type": "function"
    },
    {
      "inputs": [
        {
          "internalType": "address",
          "name": "_owner",
          "type": "address"
        }
      ],
      "name": "balanceOf",
      "outputs": [
        {
          "internalType": "uint256",
          "name": "",
          "type": "uint256"
        }
      ],
      "stateMutability": "view",
      "type": "function"
    },
    {
      "inputs": [
        {
          "internalType": "uint256",
          "name": "tokenId",
          "type": "uint256"
        }
      ],
      "name": "ownerOf",
      "outputs": [
        {
          "internalType": "address",
          "name": "",
          "type": "address"
        }
      ],
      "stateMutability": "view",
      "type": "function"
    }
  ],
  "bytecode": "0x60806040523480156200001157600080fd5b50620000437f01ffc9a7a5cef8baa21ed3c5c0d7e23accb804b619e9333b597f47a0d84076e2620000be60201b60201c565b620000b87f22c82707ba960a14c7592ffb6b8cfaa073fed0048a84cc7fa41f6b5bd8e7f2e47f3a6eb71757dfc6e784c1459d26270140c2c147d95ca985c80026fc5301c3eca17f8a7e378434598edc36d108689a030cbc9d7d465de4f74c71bae1028eed6a881b1818620000be60201b60201c565b62000218565b63ffffffff60e01b817bffffffffffffffffffffffffffffffffffffffffffffffffffffffff19160362000129576040517f08c379a00000000000000000000000000000000000000000000000000000000081526004016200012090620001f6565b60405180910390fd5b6001600080837bffffffffffffffffffffffffffffffffffffffffffffffffffffffff19167bffffffffffffffffffffffffffffffffffffffffffffffffffffffff1916815260200190815260200160002060006101000a81548160ff02191690831515021790555050565b600082825260208201905092915050565b7f455243313635202d20696e76616c696420696e74657266616365496400000000600082015250565b6000620001de601c8362000195565b9150620001eb82620001a6565b602082019050919050565b600060208201905081810360008301526200021181620001cf565b9050919050565b61132680620002286000396000f3fe608060405234801561001057600080fd5b50600436106100575760003560e01c806301ffc9a71461005c578063095ea7b31461008c57806323b872dd146100a85780636352211e146100c457806370a08231146100f4575b600080fd5b61007660048036038101906100719190610a8c565b610124565b6040516100839190610ad4565b60405180910390f35b6100a660048036038101906100a19190610b83565b61018b565b005b6100c260048036038101906100bd9190610bc3565b610326565b005b6100de60048036038101906100d99190610c16565b61037f565b6040516100eb9190610c52565b60405180910390f35b61010e60048036038101906101099190610c6d565b610404565b60405161011b9190610ca9565b60405180910390f35b6000806000837bffffffffffffffffffffffffffffffffffffffffffffffffffffffff19167bffffffffffffffffffffffffffffffffffffffffffffffffffffffff1916815260200190815260200160002060009054906101000a900460ff169050919050565b60006101968261037f565b90508073ffffffffffffffffffffffffffffffffffffffff168373ffffffffffffffffffffffffffffffffffffffff1603610206576040517f08c379a00000000000000000000000000000000000000000000000000000000081526004016101fd90610d47565b60405180910390fd5b8073ffffffffffffffffffffffffffffffffffffffff163373ffffffffffffffffffffffffffffffffffffffff1614610274576040517f08c379a000000000000000000000000000000000000000000000000000000000815260040161026b90610dd9565b60405180910390fd5b826003600084815260200190815260200160002060006101000a81548173ffffffffffffffffffffffffffffffffffffffff021916908373ffffffffffffffffffffffffffffffffffffffff160217905550818373ffffffffffffffffffffffffffffffffffffffff168273ffffffffffffffffffffffffffffffffffffffff167f8c5be1e5ebec7d5bd14f71427d1e84f3dd0314c0f7b2291e5b200ac8c7c3b92560405160405180910390a4505050565b61033033826104c2565b61036f576040517f08c379a000000000000000000000000000000000000000000000000000000000815260040161036690610e6b565b60405180910390fd5b61037a8383836105ba565b505050565b600061038a82610827565b6103c9576040517f08c379a00000000000000000000000000000000000000000000000000000000081526004016103c090610ed7565b60405180910390fd5b6001600083815260200190815260200160002060009054906101000a900473ffffffffffffffffffffffffffffffffffffffff169050919050565b60008073ffffffffffffffffffffffffffffffffffffffff168273ffffffffffffffffffffffffffffffffffffffff1603610474576040517f08c379a000000000000000000000000000000000000000000000000000000000815260040161046b90610f43565b60405180910390fd5b6104bb600260008473ffffffffffffffffffffffffffffffffffffffff1673ffffffffffffffffffffffffffffffffffffffff168152602001908152602001600020610899565b9050919050565b60006104cd82610827565b61050c576040517f08c379a000000000000000000000000000000000000000000000000000000000815260040161050390610faf565b60405180910390fd5b60006001600084815260200190815260200160002060009054906101000a900473ffffffffffffffffffffffffffffffffffffffff1690508073ffffffffffffffffffffffffffffffffffffffff168473ffffffffffffffffffffffffffffffffffffffff1614806105b157508373ffffffffffffffffffffffffffffffffffffffff16610599846108a7565b73ffffffffffffffffffffffffffffffffffffffff16145b91505092915050565b600073ffffffffffffffffffffffffffffffffffffffff168273ffffffffffffffffffffffffffffffffffffffff1603610629576040517f08c379a00000000000000000000000000000000000000000000000000000000081526004016106209061101b565b60405180910390fd5b61063281610827565b610671576040517f08c379a000000000000000000000000000000000000000000000000000000000815260040161066890610ed7565b60405180910390fd5b61067a8161037f565b73ffffffffffffffffffffffffffffffffffffffff168373ffffffffffffffffffffffffffffffffffffffff16146106e7576040517f08c379a00000000000000000000000000000000000000000000000000000000081526004016106de906110ad565b60405180910390fd5b816001600083815260200190815260200160002060006101000a81548173ffffffffffffffffffffffffffffffffffffffff021916908373ffffffffffffffffffffffffffffffffffffffff160217905550610780600260008573ffffffffffffffffffffffffffffffffffffffff1673ffffffffffffffffffffffffffffffffffffffff16815260200190815260200160002061092c565b6107c7600260008473ffffffffffffffffffffffffffffffffffffffff1673ffffffffffffffffffffffffffffffffffffffff16815260200190815260200160002061094f565b808273ffffffffffffffffffffffffffffffffffffffff168473ffffffffffffffffffffffffffffffffffffffff167fddf252ad1be2c89b69c2b068fc378daa952ba7f163c4a11628f55a4df523b3ef60405160405180910390a4505050565b6000806001600084815260200190815260200160002060009054906101000a900473ffffffffffffffffffffffffffffffffffffffff169050600073ffffffffffffffffffffffffffffffffffffffff168173ffffffffffffffffffffffffffffffffffffffff161415915050919050565b600081600001549050919050565b60006108b282610827565b6108f1576040517f08c379a00000000000000000000000000000000000000000000000000000000081526004016108e89061113f565b60405180910390fd5b6003600083815260200190815260200160002060009054906101000a900473ffffffffffffffffffffffffffffffffffffffff169050919050565b6109446001826000015461097290919063ffffffff16565b816000018190555050565b610967600182600001546109d190919063ffffffff16565b816000018190555050565b6000828211156109b7576040517f08c379a00000000000000000000000000000000000000000000000000000000081526004016109ae906111ab565b60405180910390fd5b600082846109c591906111fa565b90508091505092915050565b60008082846109e0919061122e565b905083811015610a25576040517f08c379a0000000000000000000000000000000000000000000000000000000008152600401610a1c906112d0565b60405180910390fd5b8091505092915050565b600080fd5b60007fffffffff0000000000000000000000000000000000000000000000000000000082169050919050565b610a6981610a34565b8114610a7457600080fd5b50565b600081359050610a8681610a60565b92915050565b600060208284031215610aa257610aa1610a2f565b5b6000610ab084828501610a77565b91505092915050565b60008115159050919050565b610ace81610ab9565b82525050565b6000602082019050610ae96000830184610ac5565b92915050565b600073ffffffffffffffffffffffffffffffffffffffff82169050919050565b6000610b1a82610aef565b9050919050565b610b2a81610b0f565b8114610b3557600080fd5b50565b600081359050610b4781610b21565b92915050565b6000819050919050565b610b6081610b4d565b8114610b6b57600080fd5b50565b600081359050610b7d81610b57565b92915050565b60008060408385031215610b9a57610b99610a2f565b5b6000610ba885828601610b38565b9250506020610bb985828601610b6e565b9150509250929050565b600080600060608486031215610bdc57610bdb610a2f565b5b6000610bea86828701610b38565b9350506020610bfb86828701610b38565b9250506040610c0c86828701610b6e565b9150509250925092565b600060208284031215610c2c57610c2b610a2f565b5b6000610c3a84828501610b6e565b91505092915050565b610c4c81610b0f565b82525050565b6000602082019050610c676000830184610c43565b92915050565b600060208284031215610c8357610c82610a2f565b5b6000610c9184828501610b38565b91505092915050565b610ca381610b4d565b82525050565b6000602082019050610cbe6000830184610c9a565b92915050565b600082825260208201905092915050565b7f455243373231202d204572726f722c20747279696e6720746f20617070726f7660008201527f652063757272656e74206f776e65722100000000000000000000000000000000602082015250565b6000610d31603083610cc4565b9150610d3c82610cd5565b604082019050919050565b60006020820190508181036000830152610d6081610d24565b9050919050565b7f455243373231202d204572726f722c206e6f74207468652063757272656e742060008201527f6f776e65722e2043616e6e6f7420617070726f76652100000000000000000000602082015250565b6000610dc3603683610cc4565b9150610dce82610d67565b604082019050919050565b60006020820190508181036000830152610df281610db6565b9050919050565b7f455243373231202d204572726f72206e6f74206f776e6572206f72206170707260008201527f6f76656420666f72207468697320746f6b656e00000000000000000000000000602082015250565b6000610e55603383610cc4565b9150610e6082610df9565b604082019050919050565b60006020820190508181036000830152610e8481610e48565b9050919050565b7f4552433732313a20546f6b656e20646f6573206e6f7420657869737421000000600082015250565b6000610ec1601d83610cc4565b9150610ecc82610e8b565b602082019050919050565b60006020820190508181036000830152610ef081610eb4565b9050919050565b7f4552433732313a204f776e6572207175657279206973206e6f742076616c6964600082015250565b6000610f2d602083610cc4565b9150610f3882610ef7565b602082019050919050565b60006020820190508181036000830152610f5c81610f20565b9050919050565b7f546f6b656e20646f6573206e6f74206578697374000000000000000000000000600082015250565b6000610f99601483610cc4565b9150610fa482610f63565b602082019050919050565b60006020820190508181036000830152610fc881610f8c565b9050919050565b7f4552433732313a20696e76616c696420746f2061646472657373000000000000600082015250565b6000611005601a83610cc4565b915061101082610fcf565b602082019050919050565b6000602082019050818103600083015261103481610ff8565b9050919050565b7f4552433732313a2066726f6d2061646472657373206973206e6f74207468652060008201527f6f776e6572206f66207468697320746f6b656e00000000000000000000000000602082015250565b6000611097603383610cc4565b91506110a28261103b565b604082019050919050565b600060208201905081810360008301526110c68161108a565b9050919050565b7f4552433732313a20617070726f76656420717565727920666f72206e6f6e657860008201527f697374656e7420746f6b656e0000000000000000000000000000000000000000602082015250565b6000611129602c83610cc4565b9150611134826110cd565b604082019050919050565b600060208201905081810360008301526111588161111c565b9050919050565b7f536166656d6174683a207375627472616374696f6e206f766572666c6f770000600082015250565b6000611195601e83610cc4565b91506111a08261115f565b602082019050919050565b600060208201905081810360008301526111c481611188565b9050919050565b7f4e487b7100000000000000000000000000000000000000000000000000000000600052601160045260246000fd5b600061120582610b4d565b915061121083610b4d565b925082821015611223576112226111cb565b5b828203905092915050565b600061123982610b4d565b915061124483610b4d565b9250827fffffffffffffffffffffffffffffffffffffffffffffffffffffffffffffffff03821115611279576112786111cb565b5b828201905092915050565b7f536166656d6174683a206164646974696f6e206f766572666c6f770000000000600082015250565b60006112ba601b83610cc4565b91506112c582611284565b602082019050919050565b600060208201905081810360008301526112e9816112ad565b905091905056fea2646970667358221220f26262d9a996398944305b950f06b449a16db76c9046d3348c09db607f7fee3764736f6c634300080f0033",
  "immutableReferences": {},
  "source": "// SPDX-License-Identifier: MIT\npragma solidity ^0.8.0;\n\nimport \"./ERC165.sol\";\nimport \"./interfaces/IERC721.sol\";\nimport \"./libraries/Counters.sol\";\n\ncontract ERC721 is ERC165, IERC721 {\n    using SafeMath for uint256;\n    using Counters for Counters.Counter;\n\n    // Mapping from token id to the owner\n    mapping(uint256 => address) private _tokenOwner;\n    // Mapping from owner to number of owned tokens\n    mapping(address => Counters.Counter) private _ownedTokensCount;\n    // Mapping from token id to approved addresses\n    mapping(uint256 => address) private _tokenApprovals;\n\n    constructor() {\n        _registerInterface(\n            bytes4(\n                keccak256(\"balanceOf(bytes4)\") ^\n                    keccak256(\"ownerOf(bytes4)\") ^\n                    keccak256(\"transferFrom(bytes4)\")\n            )\n        );\n    }\n\n    function _exists(uint256 tokenId) internal view returns (bool) {\n        address owner = _tokenOwner[tokenId];\n        return owner != address(0);\n    }\n\n    function _mint(address to, uint256 tokenId) internal virtual {\n        require(to != address(0), \"ERC721: minting to a zero address\");\n        require(!_exists(tokenId), \"ERC721: token already minted\");\n        _tokenOwner[tokenId] = to;\n        _ownedTokensCount[to].increment();\n\n        emit Transfer(address(0), to, tokenId);\n    }\n\n    function _transferFrom(\n        address _from,\n        address _to,\n        uint256 _tokenId\n    ) internal {\n        require(_to != address(0), \"ERC721: invalid to address\");\n        require(_exists(_tokenId), \"ERC721: Token does not exist!\");\n        require(\n            _from == ownerOf(_tokenId),\n            \"ERC721: from address is not the owner of this token\"\n        );\n\n        _tokenOwner[_tokenId] = _to;\n        _ownedTokensCount[_from].decrement();\n        _ownedTokensCount[_to].increment();\n\n        emit Transfer(_from, _to, _tokenId);\n    }\n\n    function transferFrom(\n        address _from,\n        address _to,\n        uint256 _tokenId\n    ) public {\n        require(\n            isApprovedOrOwner(msg.sender, _tokenId),\n            \"ERC721 - Error not owner or approved for this token\"\n        );\n        _transferFrom(_from, _to, _tokenId);\n    }\n\n    function approve(address _to, uint256 _tokenId) public {\n        address owner = ownerOf(_tokenId);\n\n        require(\n            _to != owner,\n            \"ERC721 - Error, trying to approve current owner!\"\n        );\n        require(\n            msg.sender == owner,\n            \"ERC721 - Error, not the current owner. Cannot approve!\"\n        );\n\n        _tokenApprovals[_tokenId] = _to;\n        emit Approval(owner, _to, _tokenId);\n    }\n\n    function isApprovedOrOwner(address spender, uint256 tokenId)\n        internal\n        view\n        returns (bool)\n    {\n        require(_exists(tokenId), \"Token does not exist\");\n        address owner = _tokenOwner[tokenId];\n        return (spender == owner || getApproved(tokenId) == spender);\n    }\n\n    function getApproved(uint256 _tokenId) internal view returns (address) {\n        require(\n            _exists(_tokenId),\n            \"ERC721: approved query for nonexistent token\"\n        );\n        return _tokenApprovals[_tokenId];\n    }\n\n    function balanceOf(address _owner) public view returns (uint256) {\n        require(_owner != address(0), \"ERC721: Owner query is not valid\");\n        return _ownedTokensCount[_owner].current();\n    }\n\n    function ownerOf(uint256 tokenId) public view returns (address) {\n        require(_exists(tokenId), \"ERC721: Token does not exist!\");\n        return _tokenOwner[tokenId];\n    }\n}\n",
  "sourcePath": "/Users/asfour/workspace/personal/nft_study/nft-marketplace-starter-kit/src/contracts/ERC721.sol",
  "compiler": {
    "name": "solc",
    "version": "0.8.15+commit.e14f2714.Emscripten.clang"
  },
  "schemaVersion": "3.4.7",
  "updatedAt": "2022-06-26T23:02:13.933Z",
  "devdoc": {
    "kind": "dev",
    "methods": {
      "balanceOf(address)": {
        "details": "NFTs assigned to the zero address are considered invalid, and this  function throws for queries about the zero address.",
        "params": {
          "_owner": "An address for whom to query the balance"
        },
        "returns": {
          "_0": "The number of NFTs owned by `_owner`, possibly zero"
        }
      },
      "supportsInterface(bytes4)": {
        "details": "Interface identification is specified in ERC-165. This function  uses less than 30,000 gas.",
        "params": {
          "interfaceID": "The interface identifier, as specified in ERC-165"
        },
        "returns": {
          "_0": "`true` if the contract implements `interfaceID` and  `interfaceID` is not 0xffffffff, `false` otherwise"
        }
      },
      "transferFrom(address,address,uint256)": {
        "details": "Throws unless `msg.sender` is the current owner, an authorized  operator, or the approved address for this NFT. Throws if `_from` is  not the current owner. Throws if `_to` is the zero address. Throws if  `_tokenId` is not a valid NFT.",
        "params": {
          "_from": "The current owner of the NFT",
          "_to": "The new owner",
          "_tokenId": "The NFT to transfer"
        }
      }
    },
    "version": 1
  },
  "userdoc": {
    "kind": "user",
    "methods": {
      "balanceOf(address)": {
        "notice": "Count all NFTs assigned to an owner"
      },
      "supportsInterface(bytes4)": {
        "notice": "Query if a contract implements an interface"
      },
      "transferFrom(address,address,uint256)": {
        "notice": "Transfer ownership of an NFT -- THE CALLER IS RESPONSIBLE  TO CONFIRM THAT `_to` IS CAPABLE OF RECEIVING NFTS OR ELSE  THEY MAY BE PERMANENTLY LOST"
      }
    },
    "version": 1
  }
}