{
  "contractName": "ERC721Connector",
  "abi": [
    {
      "inputs": [
        {
          "internalType": "string",
          "name": "name",
          "type": "string"
        },
        {
          "internalType": "string",
          "name": "symbol",
          "type": "string"
        }
      ],
      "stateMutability": "nonpayable",
      "type": "constructor"
    },
    {
      "anonymous": false,
      "inputs": [
        {
          "indexed": true,
          "internalType": "address",
          "name": "owner",
          "type": "address"
        },
        {
          "indexed": true,
          "internalType": "address",
          "name": "approved",
          "type": "address"
        },
        {
          "indexed": true,
          "internalType": "uint256",
          "name": "tokenId",
          "type": "uint256"
        }
      ],
      "name": "Approval",
      "type": "event"
    },
    {
      "anonymous": false,
      "inputs": [
        {
          "indexed": true,
          "internalType": "address",
          "name": "from",
          "type": "address"
        },
        {
          "indexed": true,
          "internalType": "address",
          "name": "to",
          "type": "address"
        },
        {
          "indexed": true,
          "internalType": "uint256",
          "name": "tokenId",
          "type": "uint256"
        }
      ],
      "name": "Transfer",
      "type": "event"
    },
    {
      "inputs": [
        {
          "internalType": "address",
          "name": "_to",
          "type": "address"
        },
        {
          "internalType": "uint256",
          "name": "_tokenId",
          "type": "uint256"
        }
      ],
      "name": "approve",
      "outputs": [],
      "stateMutability": "nonpayable",
      "type": "function"
    },
    {
      "inputs": [
        {
          "internalType": "address",
          "name": "_owner",
          "type": "address"
        }
      ],
      "name": "balanceOf",
      "outputs": [
        {
          "internalType": "uint256",
          "name": "",
          "type": "uint256"
        }
      ],
      "stateMutability": "view",
      "type": "function"
    },
    {
      "inputs": [],
      "name": "name",
      "outputs": [
        {
          "internalType": "string",
          "name": "",
          "type": "string"
        }
      ],
      "stateMutability": "view",
      "type": "function"
    },
    {
      "inputs": [
        {
          "internalType": "uint256",
          "name": "tokenId",
          "type": "uint256"
        }
      ],
      "name": "ownerOf",
      "outputs": [
        {
          "internalType": "address",
          "name": "",
          "type": "address"
        }
      ],
      "stateMutability": "view",
      "type": "function"
    },
    {
      "inputs": [],
      "name": "symbol",
      "outputs": [
        {
          "internalType": "string",
          "name": "",
          "type": "string"
        }
      ],
      "stateMutability": "view",
      "type": "function"
    },
    {
      "inputs": [
        {
          "internalType": "uint256",
          "name": "_index",
          "type": "uint256"
        }
      ],
      "name": "tokenByIndex",
      "outputs": [
        {
          "internalType": "uint256",
          "name": "",
          "type": "uint256"
        }
      ],
      "stateMutability": "view",
      "type": "function"
    },
    {
      "inputs": [
        {
          "internalType": "address",
          "name": "_owner",
          "type": "address"
        },
        {
          "internalType": "uint256",
          "name": "_index",
          "type": "uint256"
        }
      ],
      "name": "tokenOfOwnerByIndex",
      "outputs": [
        {
          "internalType": "uint256",
          "name": "",
          "type": "uint256"
        }
      ],
      "stateMutability": "view",
      "type": "function"
    },
    {
      "inputs": [],
      "name": "totalSupply",
      "outputs": [
        {
          "internalType": "uint256",
          "name": "",
          "type": "uint256"
        }
      ],
      "stateMutability": "view",
      "type": "function"
    },
    {
      "inputs": [
        {
          "internalType": "address",
          "name": "_from",
          "type": "address"
        },
        {
          "internalType": "address",
          "name": "_to",
          "type": "address"
        },
        {
          "internalType": "uint256",
          "name": "_tokenId",
          "type": "uint256"
        }
      ],
      "name": "transferFrom",
      "outputs": [],
      "stateMutability": "nonpayable",
      "type": "function"
    }
  ],
  "bytecode": "0x60806040523480156200001157600080fd5b5060405162001b2838038062001b28833981810160405281019062000037919062000204565b818181600090816200004a9190620004d4565b5080600190816200005c9190620004d4565b5050505050620005bb565b6000604051905090565b600080fd5b600080fd5b600080fd5b600080fd5b6000601f19601f8301169050919050565b7f4e487b7100000000000000000000000000000000000000000000000000000000600052604160045260246000fd5b620000d08262000085565b810181811067ffffffffffffffff82111715620000f257620000f162000096565b5b80604052505050565b60006200010762000067565b9050620001158282620000c5565b919050565b600067ffffffffffffffff82111562000138576200013762000096565b5b620001438262000085565b9050602081019050919050565b60005b838110156200017057808201518184015260208101905062000153565b8381111562000180576000848401525b50505050565b60006200019d62000197846200011a565b620000fb565b905082815260208101848484011115620001bc57620001bb62000080565b5b620001c984828562000150565b509392505050565b600082601f830112620001e957620001e86200007b565b5b8151620001fb84826020860162000186565b91505092915050565b600080604083850312156200021e576200021d62000071565b5b600083015167ffffffffffffffff8111156200023f576200023e62000076565b5b6200024d85828601620001d1565b925050602083015167ffffffffffffffff81111562000271576200027062000076565b5b6200027f85828601620001d1565b9150509250929050565b600081519050919050565b7f4e487b7100000000000000000000000000000000000000000000000000000000600052602260045260246000fd5b60006002820490506001821680620002dc57607f821691505b602082108103620002f257620002f162000294565b5b50919050565b60008190508160005260206000209050919050565b60006020601f8301049050919050565b600082821b905092915050565b6000600883026200035c7fffffffffffffffffffffffffffffffffffffffffffffffffffffffffffffffff826200031d565b6200036886836200031d565b95508019841693508086168417925050509392505050565b6000819050919050565b6000819050919050565b6000620003b5620003af620003a98462000380565b6200038a565b62000380565b9050919050565b6000819050919050565b620003d18362000394565b620003e9620003e082620003bc565b8484546200032a565b825550505050565b600090565b62000400620003f1565b6200040d818484620003c6565b505050565b5b81811015620004355762000429600082620003f6565b60018101905062000413565b5050565b601f82111562000484576200044e81620002f8565b62000459846200030d565b8101602085101562000469578190505b6200048162000478856200030d565b83018262000412565b50505b505050565b600082821c905092915050565b6000620004a96000198460080262000489565b1980831691505092915050565b6000620004c4838362000496565b9150826002028217905092915050565b620004df8262000289565b67ffffffffffffffff811115620004fb57620004fa62000096565b5b620005078254620002c3565b6200051482828562000439565b600060209050601f8311600181146200054c576000841562000537578287015190505b620005438582620004b6565b865550620005b3565b601f1984166200055c86620002f8565b60005b8281101562000586578489015182556001820191506020850194506020810190506200055f565b86831015620005a65784890151620005a2601f89168262000496565b8355505b6001600288020188555050505b505050505050565b61155d80620005cb6000396000f3fe608060405234801561001057600080fd5b50600436106100935760003560e01c80632f745c59116100665780632f745c591461010c5780634f6ccce71461013c5780636352211e1461016c57806370a082311461019c57806395d89b41146101cc57610093565b806306fdde0314610098578063095ea7b3146100b657806318160ddd146100d257806323b872dd146100f0575b600080fd5b6100a06101ea565b6040516100ad9190610c81565b60405180910390f35b6100d060048036038101906100cb9190610d3c565b61027c565b005b6100da610417565b6040516100e79190610d8b565b60405180910390f35b61010a60048036038101906101059190610da6565b610424565b005b61012660048036038101906101219190610d3c565b61047d565b6040516101339190610d8b565b60405180910390f35b61015660048036038101906101519190610df9565b61052d565b6040516101639190610d8b565b60405180910390f35b61018660048036038101906101819190610df9565b61059e565b6040516101939190610e35565b60405180910390f35b6101b660048036038101906101b19190610e50565b610623565b6040516101c39190610d8b565b60405180910390f35b6101d46106da565b6040516101e19190610c81565b60405180910390f35b6060600080546101f990610eac565b80601f016020809104026020016040519081016040528092919081815260200182805461022590610eac565b80156102725780601f1061024757610100808354040283529160200191610272565b820191906000526020600020905b81548152906001019060200180831161025557829003601f168201915b5050505050905090565b60006102878261059e565b90508073ffffffffffffffffffffffffffffffffffffffff168373ffffffffffffffffffffffffffffffffffffffff16036102f7576040517f08c379a00000000000000000000000000000000000000000000000000000000081526004016102ee90610f4f565b60405180910390fd5b8073ffffffffffffffffffffffffffffffffffffffff163373ffffffffffffffffffffffffffffffffffffffff1614610365576040517f08c379a000000000000000000000000000000000000000000000000000000000815260040161035c90610fe1565b60405180910390fd5b826004600084815260200190815260200160002060006101000a81548173ffffffffffffffffffffffffffffffffffffffff021916908373ffffffffffffffffffffffffffffffffffffffff160217905550818373ffffffffffffffffffffffffffffffffffffffff168273ffffffffffffffffffffffffffffffffffffffff167f8c5be1e5ebec7d5bd14f71427d1e84f3dd0314c0f7b2291e5b200ac8c7c3b92560405160405180910390a4505050565b6000600580549050905090565b61042e338261076c565b61046d576040517f08c379a000000000000000000000000000000000000000000000000000000000815260040161046490611073565b60405180910390fd5b610478838383610864565b505050565b600061048883610623565b82106104c9576040517f08c379a00000000000000000000000000000000000000000000000000000000081526004016104c0906110df565b60405180910390fd5b600760008473ffffffffffffffffffffffffffffffffffffffff1673ffffffffffffffffffffffffffffffffffffffff168152602001908152602001600020828154811061051a576105196110ff565b5b9060005260206000200154905092915050565b6000610537610417565b8210610578576040517f08c379a000000000000000000000000000000000000000000000000000000000815260040161056f9061117a565b60405180910390fd5b6005828154811061058c5761058b6110ff565b5b90600052602060002001549050919050565b60006105a982610af1565b6105e8576040517f08c379a00000000000000000000000000000000000000000000000000000000081526004016105df906111e6565b60405180910390fd5b6002600083815260200190815260200160002060009054906101000a900473ffffffffffffffffffffffffffffffffffffffff169050919050565b60008073ffffffffffffffffffffffffffffffffffffffff168273ffffffffffffffffffffffffffffffffffffffff1603610693576040517f08c379a000000000000000000000000000000000000000000000000000000000815260040161068a90611252565b60405180910390fd5b600360008373ffffffffffffffffffffffffffffffffffffffff1673ffffffffffffffffffffffffffffffffffffffff168152602001908152602001600020549050919050565b6060600180546106e990610eac565b80601f016020809104026020016040519081016040528092919081815260200182805461071590610eac565b80156107625780601f1061073757610100808354040283529160200191610762565b820191906000526020600020905b81548152906001019060200180831161074557829003601f168201915b5050505050905090565b600061077782610af1565b6107b6576040517f08c379a00000000000000000000000000000000000000000000000000000000081526004016107ad906112be565b60405180910390fd5b60006002600084815260200190815260200160002060009054906101000a900473ffffffffffffffffffffffffffffffffffffffff1690508073ffffffffffffffffffffffffffffffffffffffff168473ffffffffffffffffffffffffffffffffffffffff16148061085b57508373ffffffffffffffffffffffffffffffffffffffff1661084384610b63565b73ffffffffffffffffffffffffffffffffffffffff16145b91505092915050565b600073ffffffffffffffffffffffffffffffffffffffff168273ffffffffffffffffffffffffffffffffffffffff16036108d3576040517f08c379a00000000000000000000000000000000000000000000000000000000081526004016108ca9061132a565b60405180910390fd5b6108dc81610af1565b61091b576040517f08c379a0000000000000000000000000000000000000000000000000000000008152600401610912906111e6565b60405180910390fd5b6109248161059e565b73ffffffffffffffffffffffffffffffffffffffff168373ffffffffffffffffffffffffffffffffffffffff1614610991576040517f08c379a0000000000000000000000000000000000000000000000000000000008152600401610988906113bc565b60405180910390fd5b816002600083815260200190815260200160002060006101000a81548173ffffffffffffffffffffffffffffffffffffffff021916908373ffffffffffffffffffffffffffffffffffffffff1602179055506001600360008573ffffffffffffffffffffffffffffffffffffffff1673ffffffffffffffffffffffffffffffffffffffff1681526020019081526020016000206000828254610a33919061140b565b925050819055506001600360008473ffffffffffffffffffffffffffffffffffffffff1673ffffffffffffffffffffffffffffffffffffffff1681526020019081526020016000206000828254610a8a919061143f565b92505081905550808273ffffffffffffffffffffffffffffffffffffffff168473ffffffffffffffffffffffffffffffffffffffff167fddf252ad1be2c89b69c2b068fc378daa952ba7f163c4a11628f55a4df523b3ef60405160405180910390a4505050565b6000806002600084815260200190815260200160002060009054906101000a900473ffffffffffffffffffffffffffffffffffffffff169050600073ffffffffffffffffffffffffffffffffffffffff168173ffffffffffffffffffffffffffffffffffffffff161415915050919050565b6000610b6e82610af1565b610bad576040517f08c379a0000000000000000000000000000000000000000000000000000000008152600401610ba490611507565b60405180910390fd5b6004600083815260200190815260200160002060009054906101000a900473ffffffffffffffffffffffffffffffffffffffff169050919050565b600081519050919050565b600082825260208201905092915050565b60005b83811015610c22578082015181840152602081019050610c07565b83811115610c31576000848401525b50505050565b6000601f19601f8301169050919050565b6000610c5382610be8565b610c5d8185610bf3565b9350610c6d818560208601610c04565b610c7681610c37565b840191505092915050565b60006020820190508181036000830152610c9b8184610c48565b905092915050565b600080fd5b600073ffffffffffffffffffffffffffffffffffffffff82169050919050565b6000610cd382610ca8565b9050919050565b610ce381610cc8565b8114610cee57600080fd5b50565b600081359050610d0081610cda565b92915050565b6000819050919050565b610d1981610d06565b8114610d2457600080fd5b50565b600081359050610d3681610d10565b92915050565b60008060408385031215610d5357610d52610ca3565b5b6000610d6185828601610cf1565b9250506020610d7285828601610d27565b9150509250929050565b610d8581610d06565b82525050565b6000602082019050610da06000830184610d7c565b92915050565b600080600060608486031215610dbf57610dbe610ca3565b5b6000610dcd86828701610cf1565b9350506020610dde86828701610cf1565b9250506040610def86828701610d27565b9150509250925092565b600060208284031215610e0f57610e0e610ca3565b5b6000610e1d84828501610d27565b91505092915050565b610e2f81610cc8565b82525050565b6000602082019050610e4a6000830184610e26565b92915050565b600060208284031215610e6657610e65610ca3565b5b6000610e7484828501610cf1565b91505092915050565b7f4e487b7100000000000000000000000000000000000000000000000000000000600052602260045260246000fd5b60006002820490506001821680610ec457607f821691505b602082108103610ed757610ed6610e7d565b5b50919050565b7f455243373231202d204572726f722c20747279696e6720746f20617070726f7660008201527f652063757272656e74206f776e65722100000000000000000000000000000000602082015250565b6000610f39603083610bf3565b9150610f4482610edd565b604082019050919050565b60006020820190508181036000830152610f6881610f2c565b9050919050565b7f455243373231202d204572726f722c206e6f74207468652063757272656e742060008201527f6f776e65722e2043616e6e6f7420617070726f76652100000000000000000000602082015250565b6000610fcb603683610bf3565b9150610fd682610f6f565b604082019050919050565b60006020820190508181036000830152610ffa81610fbe565b9050919050565b7f455243373231202d204572726f72206e6f74206f776e6572206f72206170707260008201527f6f76656420666f72207468697320746f6b656e00000000000000000000000000602082015250565b600061105d603383610bf3565b915061106882611001565b604082019050919050565b6000602082019050818103600083015261108c81611050565b9050919050565b7f4f776e657220696e646578206973206f7574206f6620626f756e640000000000600082015250565b60006110c9601b83610bf3565b91506110d482611093565b602082019050919050565b600060208201905081810360008301526110f8816110bc565b9050919050565b7f4e487b7100000000000000000000000000000000000000000000000000000000600052603260045260246000fd5b7f476c6f62616c20696e646578206973206f7574206f6620626f756e6473000000600082015250565b6000611164601d83610bf3565b915061116f8261112e565b602082019050919050565b6000602082019050818103600083015261119381611157565b9050919050565b7f4552433732313a20546f6b656e20646f6573206e6f7420657869737421000000600082015250565b60006111d0601d83610bf3565b91506111db8261119a565b602082019050919050565b600060208201905081810360008301526111ff816111c3565b9050919050565b7f4552433732313a204f776e6572207175657279206973206e6f742076616c6964600082015250565b600061123c602083610bf3565b915061124782611206565b602082019050919050565b6000602082019050818103600083015261126b8161122f565b9050919050565b7f546f6b656e20646f6573206e6f74206578697374000000000000000000000000600082015250565b60006112a8601483610bf3565b91506112b382611272565b602082019050919050565b600060208201905081810360008301526112d78161129b565b9050919050565b7f4552433732313a20696e76616c696420746f2061646472657373000000000000600082015250565b6000611314601a83610bf3565b915061131f826112de565b602082019050919050565b6000602082019050818103600083015261134381611307565b9050919050565b7f4552433732313a2066726f6d2061646472657373206973206e6f74207468652060008201527f6f776e6572206f66207468697320746f6b656e00000000000000000000000000602082015250565b60006113a6603383610bf3565b91506113b18261134a565b604082019050919050565b600060208201905081810360008301526113d581611399565b9050919050565b7f4e487b7100000000000000000000000000000000000000000000000000000000600052601160045260246000fd5b600061141682610d06565b915061142183610d06565b925082821015611434576114336113dc565b5b828203905092915050565b600061144a82610d06565b915061145583610d06565b9250827fffffffffffffffffffffffffffffffffffffffffffffffffffffffffffffffff0382111561148a576114896113dc565b5b828201905092915050565b7f4552433732313a20617070726f76656420717565727920666f72206e6f6e657860008201527f697374656e7420746f6b656e0000000000000000000000000000000000000000602082015250565b60006114f1602c83610bf3565b91506114fc82611495565b604082019050919050565b60006020820190508181036000830152611520816114e4565b905091905056fea2646970667358221220ae3ba762161c17f24dd2b2c570f404dccf04c2e1276988f96c29aa5805c56e1d64736f6c634300080f0033",
  "immutableReferences": {},
  "source": "// SPDX-License-Identifier: MIT\npragma solidity ^0.8.0;\n\nimport './ERC721Metadata.sol';\nimport './ERC721Enumerable.sol';\n\ncontract ERC721Connector is ERC721Metadata, ERC721Enumerable {\n    constructor(string memory name, string memory symbol) ERC721Metadata(name , symbol) {}\n}",
  "sourcePath": "/Users/asfour/workspace/personal/nft_study/nft-marketplace-starter-kit/src/contracts/ERC721Connector.sol",
  "compiler": {
    "name": "solc",
    "version": "0.8.15+commit.e14f2714.Emscripten.clang"
  },
  "schemaVersion": "3.4.7",
  "updatedAt": "2022-06-20T00:18:56.695Z",
  "devdoc": {
    "kind": "dev",
    "methods": {},
    "version": 1
  },
  "userdoc": {
    "kind": "user",
    "methods": {},
    "version": 1
  }
}