{
  "contractName": "KryptoBird",
  "abi": [
    {
      "inputs": [],
      "stateMutability": "nonpayable",
      "type": "constructor"
    },
    {
      "anonymous": false,
      "inputs": [
        {
          "indexed": true,
          "internalType": "address",
          "name": "owner",
          "type": "address"
        },
        {
          "indexed": true,
          "internalType": "address",
          "name": "approved",
          "type": "address"
        },
        {
          "indexed": true,
          "internalType": "uint256",
          "name": "tokenId",
          "type": "uint256"
        }
      ],
      "name": "Approval",
      "type": "event"
    },
    {
      "anonymous": false,
      "inputs": [
        {
          "indexed": true,
          "internalType": "address",
          "name": "from",
          "type": "address"
        },
        {
          "indexed": true,
          "internalType": "address",
          "name": "to",
          "type": "address"
        },
        {
          "indexed": true,
          "internalType": "uint256",
          "name": "tokenId",
          "type": "uint256"
        }
      ],
      "name": "Transfer",
      "type": "event"
    },
    {
      "inputs": [
        {
          "internalType": "address",
          "name": "_to",
          "type": "address"
        },
        {
          "internalType": "uint256",
          "name": "_tokenId",
          "type": "uint256"
        }
      ],
      "name": "approve",
      "outputs": [],
      "stateMutability": "nonpayable",
      "type": "function"
    },
    {
      "inputs": [
        {
          "internalType": "address",
          "name": "_owner",
          "type": "address"
        }
      ],
      "name": "balanceOf",
      "outputs": [
        {
          "internalType": "uint256",
          "name": "",
          "type": "uint256"
        }
      ],
      "stateMutability": "view",
      "type": "function",
      "constant": true
    },
    {
      "inputs": [
        {
          "internalType": "uint256",
          "name": "",
          "type": "uint256"
        }
      ],
      "name": "kryptoBirdz",
      "outputs": [
        {
          "internalType": "string",
          "name": "",
          "type": "string"
        }
      ],
      "stateMutability": "view",
      "type": "function",
      "constant": true
    },
    {
      "inputs": [],
      "name": "name",
      "outputs": [
        {
          "internalType": "string",
          "name": "",
          "type": "string"
        }
      ],
      "stateMutability": "view",
      "type": "function",
      "constant": true
    },
    {
      "inputs": [
        {
          "internalType": "uint256",
          "name": "tokenId",
          "type": "uint256"
        }
      ],
      "name": "ownerOf",
      "outputs": [
        {
          "internalType": "address",
          "name": "",
          "type": "address"
        }
      ],
      "stateMutability": "view",
      "type": "function",
      "constant": true
    },
    {
      "inputs": [],
      "name": "symbol",
      "outputs": [
        {
          "internalType": "string",
          "name": "",
          "type": "string"
        }
      ],
      "stateMutability": "view",
      "type": "function",
      "constant": true
    },
    {
      "inputs": [
        {
          "internalType": "uint256",
          "name": "_index",
          "type": "uint256"
        }
      ],
      "name": "tokenByIndex",
      "outputs": [
        {
          "internalType": "uint256",
          "name": "",
          "type": "uint256"
        }
      ],
      "stateMutability": "view",
      "type": "function",
      "constant": true
    },
    {
      "inputs": [
        {
          "internalType": "address",
          "name": "_owner",
          "type": "address"
        },
        {
          "internalType": "uint256",
          "name": "_index",
          "type": "uint256"
        }
      ],
      "name": "tokenOfOwnerByIndex",
      "outputs": [
        {
          "internalType": "uint256",
          "name": "",
          "type": "uint256"
        }
      ],
      "stateMutability": "view",
      "type": "function",
      "constant": true
    },
    {
      "inputs": [],
      "name": "totalSupply",
      "outputs": [
        {
          "internalType": "uint256",
          "name": "",
          "type": "uint256"
        }
      ],
      "stateMutability": "view",
      "type": "function",
      "constant": true
    },
    {
      "inputs": [
        {
          "internalType": "address",
          "name": "_from",
          "type": "address"
        },
        {
          "internalType": "address",
          "name": "_to",
          "type": "address"
        },
        {
          "internalType": "uint256",
          "name": "_tokenId",
          "type": "uint256"
        }
      ],
      "name": "transferFrom",
      "outputs": [],
      "stateMutability": "nonpayable",
      "type": "function"
    },
    {
      "inputs": [
        {
          "internalType": "string",
          "name": "_kryptoBird",
          "type": "string"
        }
      ],
      "name": "mint",
      "outputs": [],
      "stateMutability": "nonpayable",
      "type": "function"
    }
  ],
  "bytecode": "0x60806040523480156200001157600080fd5b506040518060400160405280600a81526020017f4b727970746f42697264000000000000000000000000000000000000000000008152506040518060400160405280600681526020017f4b424952445a00000000000000000000000000000000000000000000000000008152508181816000908162000091919062000328565b508060019081620000a3919062000328565b50505050506200040f565b600081519050919050565b7f4e487b7100000000000000000000000000000000000000000000000000000000600052604160045260246000fd5b7f4e487b7100000000000000000000000000000000000000000000000000000000600052602260045260246000fd5b600060028204905060018216806200013057607f821691505b602082108103620001465762000145620000e8565b5b50919050565b60008190508160005260206000209050919050565b60006020601f8301049050919050565b600082821b905092915050565b600060088302620001b07fffffffffffffffffffffffffffffffffffffffffffffffffffffffffffffffff8262000171565b620001bc868362000171565b95508019841693508086168417925050509392505050565b6000819050919050565b6000819050919050565b60006200020962000203620001fd84620001d4565b620001de565b620001d4565b9050919050565b6000819050919050565b6200022583620001e8565b6200023d620002348262000210565b8484546200017e565b825550505050565b600090565b6200025462000245565b620002618184846200021a565b505050565b5b8181101562000289576200027d6000826200024a565b60018101905062000267565b5050565b601f821115620002d857620002a2816200014c565b620002ad8462000161565b81016020851015620002bd578190505b620002d5620002cc8562000161565b83018262000266565b50505b505050565b600082821c905092915050565b6000620002fd60001984600802620002dd565b1980831691505092915050565b6000620003188383620002ea565b9150826002028217905092915050565b6200033382620000ae565b67ffffffffffffffff8111156200034f576200034e620000b9565b5b6200035b825462000117565b620003688282856200028d565b600060209050601f831160018114620003a057600084156200038b578287015190505b6200039785826200030a565b86555062000407565b601f198416620003b0866200014c565b60005b82811015620003da57848901518255600182019150602085019450602081019050620003b3565b86831015620003fa5784890151620003f6601f891682620002ea565b8355505b6001600288020188555050505b505050505050565b61201e806200041f6000396000f3fe608060405234801561001057600080fd5b50600436106100a95760003560e01c80634f6ccce7116100715780634f6ccce7146101525780636352211e1461018257806370a08231146101b257806393ab6e56146101e257806395d89b4114610212578063d85d3d2714610230576100a9565b806306fdde03146100ae578063095ea7b3146100cc57806318160ddd146100e857806323b872dd146101065780632f745c5914610122575b600080fd5b6100b661024c565b6040516100c3919061117a565b60405180910390f35b6100e660048036038101906100e19190611244565b6102de565b005b6100f0610479565b6040516100fd9190611293565b60405180910390f35b610120600480360381019061011b91906112ae565b610486565b005b61013c60048036038101906101379190611244565b6104df565b6040516101499190611293565b60405180910390f35b61016c60048036038101906101679190611301565b61058f565b6040516101799190611293565b60405180910390f35b61019c60048036038101906101979190611301565b610600565b6040516101a9919061133d565b60405180910390f35b6101cc60048036038101906101c79190611358565b610685565b6040516101d99190611293565b60405180910390f35b6101fc60048036038101906101f79190611301565b61073c565b604051610209919061117a565b60405180910390f35b61021a6107e8565b604051610227919061117a565b60405180910390f35b61024a600480360381019061024591906114ba565b61087a565b005b60606000805461025b90611532565b80601f016020809104026020016040519081016040528092919081815260200182805461028790611532565b80156102d45780601f106102a9576101008083540402835291602001916102d4565b820191906000526020600020905b8154815290600101906020018083116102b757829003601f168201915b5050505050905090565b60006102e982610600565b90508073ffffffffffffffffffffffffffffffffffffffff168373ffffffffffffffffffffffffffffffffffffffff1603610359576040517f08c379a0000000000000000000000000000000000000000000000000000000008152600401610350906115d5565b60405180910390fd5b8073ffffffffffffffffffffffffffffffffffffffff163373ffffffffffffffffffffffffffffffffffffffff16146103c7576040517f08c379a00000000000000000000000000000000000000000000000000000000081526004016103be90611667565b60405180910390fd5b826004600084815260200190815260200160002060006101000a81548173ffffffffffffffffffffffffffffffffffffffff021916908373ffffffffffffffffffffffffffffffffffffffff160217905550818373ffffffffffffffffffffffffffffffffffffffff168273ffffffffffffffffffffffffffffffffffffffff167f8c5be1e5ebec7d5bd14f71427d1e84f3dd0314c0f7b2291e5b200ac8c7c3b92560405160405180910390a4505050565b6000600580549050905090565b6104903382610976565b6104cf576040517f08c379a00000000000000000000000000000000000000000000000000000000081526004016104c6906116f9565b60405180910390fd5b6104da838383610a6e565b505050565b60006104ea83610685565b821061052b576040517f08c379a000000000000000000000000000000000000000000000000000000000815260040161052290611765565b60405180910390fd5b600760008473ffffffffffffffffffffffffffffffffffffffff1673ffffffffffffffffffffffffffffffffffffffff168152602001908152602001600020828154811061057c5761057b611785565b5b9060005260206000200154905092915050565b6000610599610479565b82106105da576040517f08c379a00000000000000000000000000000000000000000000000000000000081526004016105d190611800565b60405180910390fd5b600582815481106105ee576105ed611785565b5b90600052602060002001549050919050565b600061060b82610cfb565b61064a576040517f08c379a00000000000000000000000000000000000000000000000000000000081526004016106419061186c565b60405180910390fd5b6002600083815260200190815260200160002060009054906101000a900473ffffffffffffffffffffffffffffffffffffffff169050919050565b60008073ffffffffffffffffffffffffffffffffffffffff168273ffffffffffffffffffffffffffffffffffffffff16036106f5576040517f08c379a00000000000000000000000000000000000000000000000000000000081526004016106ec906118d8565b60405180910390fd5b600360008373ffffffffffffffffffffffffffffffffffffffff1673ffffffffffffffffffffffffffffffffffffffff168152602001908152602001600020549050919050565b6009818154811061074c57600080fd5b90600052602060002001600091509050805461076790611532565b80601f016020809104026020016040519081016040528092919081815260200182805461079390611532565b80156107e05780601f106107b5576101008083540402835291602001916107e0565b820191906000526020600020905b8154815290600101906020018083116107c357829003601f168201915b505050505081565b6060600180546107f790611532565b80601f016020809104026020016040519081016040528092919081815260200182805461082390611532565b80156108705780601f1061084557610100808354040283529160200191610870565b820191906000526020600020905b81548152906001019060200180831161085357829003601f168201915b5050505050905090565b600a8160405161088a9190611934565b908152602001604051809103902060009054906101000a900460ff16156108e6576040517f08c379a00000000000000000000000000000000000000000000000000000000081526004016108dd90611997565b60405180910390fd5b60098190806001815401808255809150506001900390600052602060002001600090919091909150908161091a9190611b63565b506000600160098054905061092f9190611c64565b905061093b3382610d6d565b6001600a8360405161094d9190611934565b908152602001604051809103902060006101000a81548160ff0219169083151502179055505050565b600061098182610cfb565b6109c0576040517f08c379a00000000000000000000000000000000000000000000000000000000081526004016109b790611ce4565b60405180910390fd5b60006002600084815260200190815260200160002060009054906101000a900473ffffffffffffffffffffffffffffffffffffffff1690508073ffffffffffffffffffffffffffffffffffffffff168473ffffffffffffffffffffffffffffffffffffffff161480610a6557508373ffffffffffffffffffffffffffffffffffffffff16610a4d84610d8e565b73ffffffffffffffffffffffffffffffffffffffff16145b91505092915050565b600073ffffffffffffffffffffffffffffffffffffffff168273ffffffffffffffffffffffffffffffffffffffff1603610add576040517f08c379a0000000000000000000000000000000000000000000000000000000008152600401610ad490611d50565b60405180910390fd5b610ae681610cfb565b610b25576040517f08c379a0000000000000000000000000000000000000000000000000000000008152600401610b1c9061186c565b60405180910390fd5b610b2e81610600565b73ffffffffffffffffffffffffffffffffffffffff168373ffffffffffffffffffffffffffffffffffffffff1614610b9b576040517f08c379a0000000000000000000000000000000000000000000000000000000008152600401610b9290611de2565b60405180910390fd5b816002600083815260200190815260200160002060006101000a81548173ffffffffffffffffffffffffffffffffffffffff021916908373ffffffffffffffffffffffffffffffffffffffff1602179055506001600360008573ffffffffffffffffffffffffffffffffffffffff1673ffffffffffffffffffffffffffffffffffffffff1681526020019081526020016000206000828254610c3d9190611c64565b925050819055506001600360008473ffffffffffffffffffffffffffffffffffffffff1673ffffffffffffffffffffffffffffffffffffffff1681526020019081526020016000206000828254610c949190611e02565b92505081905550808273ffffffffffffffffffffffffffffffffffffffff168473ffffffffffffffffffffffffffffffffffffffff167fddf252ad1be2c89b69c2b068fc378daa952ba7f163c4a11628f55a4df523b3ef60405160405180910390a4505050565b6000806002600084815260200190815260200160002060009054906101000a900473ffffffffffffffffffffffffffffffffffffffff169050600073ffffffffffffffffffffffffffffffffffffffff168173ffffffffffffffffffffffffffffffffffffffff161415915050919050565b610d778282610e13565b610d818282610fd4565b610d8a81611098565b5050565b6000610d9982610cfb565b610dd8576040517f08c379a0000000000000000000000000000000000000000000000000000000008152600401610dcf90611eca565b60405180910390fd5b6004600083815260200190815260200160002060009054906101000a900473ffffffffffffffffffffffffffffffffffffffff169050919050565b600073ffffffffffffffffffffffffffffffffffffffff168273ffffffffffffffffffffffffffffffffffffffff1603610e82576040517f08c379a0000000000000000000000000000000000000000000000000000000008152600401610e7990611f5c565b60405180910390fd5b610e8b81610cfb565b15610ecb576040517f08c379a0000000000000000000000000000000000000000000000000000000008152600401610ec290611fc8565b60405180910390fd5b816002600083815260200190815260200160002060006101000a81548173ffffffffffffffffffffffffffffffffffffffff021916908373ffffffffffffffffffffffffffffffffffffffff1602179055506001600360008473ffffffffffffffffffffffffffffffffffffffff1673ffffffffffffffffffffffffffffffffffffffff1681526020019081526020016000206000828254610f6d9190611e02565b92505081905550808273ffffffffffffffffffffffffffffffffffffffff16600073ffffffffffffffffffffffffffffffffffffffff167fddf252ad1be2c89b69c2b068fc378daa952ba7f163c4a11628f55a4df523b3ef60405160405180910390a45050565b600760008373ffffffffffffffffffffffffffffffffffffffff1673ffffffffffffffffffffffffffffffffffffffff168152602001908152602001600020805490506008600083815260200190815260200160002081905550600760008373ffffffffffffffffffffffffffffffffffffffff1673ffffffffffffffffffffffffffffffffffffffff1681526020019081526020016000208190806001815401808255809150506001900390600052602060002001600090919091909150555050565b6005805490506006600083815260200190815260200160002081905550600581908060018154018082558091505060019003906000526020600020016000909190919091505550565b600081519050919050565b600082825260208201905092915050565b60005b8381101561111b578082015181840152602081019050611100565b8381111561112a576000848401525b50505050565b6000601f19601f8301169050919050565b600061114c826110e1565b61115681856110ec565b93506111668185602086016110fd565b61116f81611130565b840191505092915050565b600060208201905081810360008301526111948184611141565b905092915050565b6000604051905090565b600080fd5b600080fd5b600073ffffffffffffffffffffffffffffffffffffffff82169050919050565b60006111db826111b0565b9050919050565b6111eb816111d0565b81146111f657600080fd5b50565b600081359050611208816111e2565b92915050565b6000819050919050565b6112218161120e565b811461122c57600080fd5b50565b60008135905061123e81611218565b92915050565b6000806040838503121561125b5761125a6111a6565b5b6000611269858286016111f9565b925050602061127a8582860161122f565b9150509250929050565b61128d8161120e565b82525050565b60006020820190506112a86000830184611284565b92915050565b6000806000606084860312156112c7576112c66111a6565b5b60006112d5868287016111f9565b93505060206112e6868287016111f9565b92505060406112f78682870161122f565b9150509250925092565b600060208284031215611317576113166111a6565b5b60006113258482850161122f565b91505092915050565b611337816111d0565b82525050565b6000602082019050611352600083018461132e565b92915050565b60006020828403121561136e5761136d6111a6565b5b600061137c848285016111f9565b91505092915050565b600080fd5b600080fd5b7f4e487b7100000000000000000000000000000000000000000000000000000000600052604160045260246000fd5b6113c782611130565b810181811067ffffffffffffffff821117156113e6576113e561138f565b5b80604052505050565b60006113f961119c565b905061140582826113be565b919050565b600067ffffffffffffffff8211156114255761142461138f565b5b61142e82611130565b9050602081019050919050565b82818337600083830152505050565b600061145d6114588461140a565b6113ef565b9050828152602081018484840111156114795761147861138a565b5b61148484828561143b565b509392505050565b600082601f8301126114a1576114a0611385565b5b81356114b184826020860161144a565b91505092915050565b6000602082840312156114d0576114cf6111a6565b5b600082013567ffffffffffffffff8111156114ee576114ed6111ab565b5b6114fa8482850161148c565b91505092915050565b7f4e487b7100000000000000000000000000000000000000000000000000000000600052602260045260246000fd5b6000600282049050600182168061154a57607f821691505b60208210810361155d5761155c611503565b5b50919050565b7f455243373231202d204572726f722c20747279696e6720746f20617070726f7660008201527f652063757272656e74206f776e65722100000000000000000000000000000000602082015250565b60006115bf6030836110ec565b91506115ca82611563565b604082019050919050565b600060208201905081810360008301526115ee816115b2565b9050919050565b7f455243373231202d204572726f722c206e6f74207468652063757272656e742060008201527f6f776e65722e2043616e6e6f7420617070726f76652100000000000000000000602082015250565b60006116516036836110ec565b915061165c826115f5565b604082019050919050565b6000602082019050818103600083015261168081611644565b9050919050565b7f455243373231202d204572726f72206e6f74206f776e6572206f72206170707260008201527f6f76656420666f72207468697320746f6b656e00000000000000000000000000602082015250565b60006116e36033836110ec565b91506116ee82611687565b604082019050919050565b60006020820190508181036000830152611712816116d6565b9050919050565b7f4f776e657220696e646578206973206f7574206f6620626f756e640000000000600082015250565b600061174f601b836110ec565b915061175a82611719565b602082019050919050565b6000602082019050818103600083015261177e81611742565b9050919050565b7f4e487b7100000000000000000000000000000000000000000000000000000000600052603260045260246000fd5b7f476c6f62616c20696e646578206973206f7574206f6620626f756e6473000000600082015250565b60006117ea601d836110ec565b91506117f5826117b4565b602082019050919050565b60006020820190508181036000830152611819816117dd565b9050919050565b7f4552433732313a20546f6b656e20646f6573206e6f7420657869737421000000600082015250565b6000611856601d836110ec565b915061186182611820565b602082019050919050565b6000602082019050818103600083015261188581611849565b9050919050565b7f4552433732313a204f776e6572207175657279206973206e6f742076616c6964600082015250565b60006118c26020836110ec565b91506118cd8261188c565b602082019050919050565b600060208201905081810360008301526118f1816118b5565b9050919050565b600081905092915050565b600061190e826110e1565b61191881856118f8565b93506119288185602086016110fd565b80840191505092915050565b60006119408284611903565b915081905092915050565b7f4572726f723a206b727970746f6269726420616c726561647920657869737473600082015250565b60006119816020836110ec565b915061198c8261194b565b602082019050919050565b600060208201905081810360008301526119b081611974565b9050919050565b60008190508160005260206000209050919050565b60006020601f8301049050919050565b600082821b905092915050565b600060088302611a197fffffffffffffffffffffffffffffffffffffffffffffffffffffffffffffffff826119dc565b611a2386836119dc565b95508019841693508086168417925050509392505050565b6000819050919050565b6000611a60611a5b611a568461120e565b611a3b565b61120e565b9050919050565b6000819050919050565b611a7a83611a45565b611a8e611a8682611a67565b8484546119e9565b825550505050565b600090565b611aa3611a96565b611aae818484611a71565b505050565b5b81811015611ad257611ac7600082611a9b565b600181019050611ab4565b5050565b601f821115611b1757611ae8816119b7565b611af1846119cc565b81016020851015611b00578190505b611b14611b0c856119cc565b830182611ab3565b50505b505050565b600082821c905092915050565b6000611b3a60001984600802611b1c565b1980831691505092915050565b6000611b538383611b29565b9150826002028217905092915050565b611b6c826110e1565b67ffffffffffffffff811115611b8557611b8461138f565b5b611b8f8254611532565b611b9a828285611ad6565b600060209050601f831160018114611bcd5760008415611bbb578287015190505b611bc58582611b47565b865550611c2d565b601f198416611bdb866119b7565b60005b82811015611c0357848901518255600182019150602085019450602081019050611bde565b86831015611c205784890151611c1c601f891682611b29565b8355505b6001600288020188555050505b505050505050565b7f4e487b7100000000000000000000000000000000000000000000000000000000600052601160045260246000fd5b6000611c6f8261120e565b9150611c7a8361120e565b925082821015611c8d57611c8c611c35565b5b828203905092915050565b7f546f6b656e20646f6573206e6f74206578697374000000000000000000000000600082015250565b6000611cce6014836110ec565b9150611cd982611c98565b602082019050919050565b60006020820190508181036000830152611cfd81611cc1565b9050919050565b7f4552433732313a20696e76616c696420746f2061646472657373000000000000600082015250565b6000611d3a601a836110ec565b9150611d4582611d04565b602082019050919050565b60006020820190508181036000830152611d6981611d2d565b9050919050565b7f4552433732313a2066726f6d2061646472657373206973206e6f74207468652060008201527f6f776e6572206f66207468697320746f6b656e00000000000000000000000000602082015250565b6000611dcc6033836110ec565b9150611dd782611d70565b604082019050919050565b60006020820190508181036000830152611dfb81611dbf565b9050919050565b6000611e0d8261120e565b9150611e188361120e565b9250827fffffffffffffffffffffffffffffffffffffffffffffffffffffffffffffffff03821115611e4d57611e4c611c35565b5b828201905092915050565b7f4552433732313a20617070726f76656420717565727920666f72206e6f6e657860008201527f697374656e7420746f6b656e0000000000000000000000000000000000000000602082015250565b6000611eb4602c836110ec565b9150611ebf82611e58565b604082019050919050565b60006020820190508181036000830152611ee381611ea7565b9050919050565b7f4552433732313a206d696e74696e6720746f2061207a65726f2061646472657360008201527f7300000000000000000000000000000000000000000000000000000000000000602082015250565b6000611f466021836110ec565b9150611f5182611eea565b604082019050919050565b60006020820190508181036000830152611f7581611f39565b9050919050565b7f4552433732313a20746f6b656e20616c7265616479206d696e74656400000000600082015250565b6000611fb2601c836110ec565b9150611fbd82611f7c565b602082019050919050565b60006020820190508181036000830152611fe181611fa5565b905091905056fea2646970667358221220b9ac598867f19ca42f6ccae4ff963373c0b6fd1ef9060d85d2772b6375709fba64736f6c634300080f0033",
  "immutableReferences": {},
  "source": "// SPDX-License-Identifier: MIT\npragma solidity ^0.8.0;\n\nimport './ERC721Connector.sol';\n\ncontract KryptoBird is ERC721Connector {\n    string[] public kryptoBirdz;\n    \n    mapping(string => bool) _kryptoBirdzExists;\n\n    function mint(string memory _kryptoBird) public {\n        require(\n            !_kryptoBirdzExists[_kryptoBird],\n            'Error: kryptobird already exists'\n        );\n        \n        kryptoBirdz.push(_kryptoBird);\n        \n        uint _id = kryptoBirdz.length - 1;\n        _mint(msg.sender, _id);\n        \n        _kryptoBirdzExists[_kryptoBird] = true;\n    }\n    constructor() ERC721Connector('KryptoBird', 'KBIRDZ') {}\n}",
  "sourcePath": "/Users/asfour/workspace/personal/nft_study/nft-marketplace-starter-kit/src/contracts/KryptoBirdz.sol",
  "compiler": {
    "name": "solc",
    "version": "0.8.15+commit.e14f2714.Emscripten.clang"
  },
  "schemaVersion": "3.4.7",
  "updatedAt": "2022-06-20T00:19:13.342Z",
  "networkType": "ethereum",
  "devdoc": {
    "kind": "dev",
    "methods": {},
    "version": 1
  },
  "userdoc": {
    "kind": "user",
    "methods": {},
    "version": 1
  }
}