{
  "contractName": "KryptoBird",
  "abi": [
    {
      "inputs": [],
      "stateMutability": "nonpayable",
      "type": "constructor"
    },
    {
      "anonymous": false,
      "inputs": [
        {
          "indexed": true,
          "internalType": "address",
          "name": "from",
          "type": "address"
        },
        {
          "indexed": true,
          "internalType": "address",
          "name": "to",
          "type": "address"
        },
        {
          "indexed": true,
          "internalType": "uint256",
          "name": "tokenId",
          "type": "uint256"
        }
      ],
      "name": "Transfer",
      "type": "event"
    },
    {
      "inputs": [
        {
          "internalType": "address",
          "name": "_owner",
          "type": "address"
        }
      ],
      "name": "balanceOf",
      "outputs": [
        {
          "internalType": "uint256",
          "name": "",
          "type": "uint256"
        }
      ],
      "stateMutability": "view",
      "type": "function",
      "constant": true
    },
    {
      "inputs": [
        {
          "internalType": "uint256",
          "name": "",
          "type": "uint256"
        }
      ],
      "name": "kryptoBirdz",
      "outputs": [
        {
          "internalType": "string",
          "name": "",
          "type": "string"
        }
      ],
      "stateMutability": "view",
      "type": "function",
      "constant": true
    },
    {
      "inputs": [],
      "name": "name",
      "outputs": [
        {
          "internalType": "string",
          "name": "",
          "type": "string"
        }
      ],
      "stateMutability": "view",
      "type": "function",
      "constant": true
    },
    {
      "inputs": [
        {
          "internalType": "uint256",
          "name": "tokenId",
          "type": "uint256"
        }
      ],
      "name": "ownerOf",
      "outputs": [
        {
          "internalType": "address",
          "name": "",
          "type": "address"
        }
      ],
      "stateMutability": "view",
      "type": "function",
      "constant": true
    },
    {
      "inputs": [],
      "name": "symbol",
      "outputs": [
        {
          "internalType": "string",
          "name": "",
          "type": "string"
        }
      ],
      "stateMutability": "view",
      "type": "function",
      "constant": true
    },
    {
      "inputs": [
        {
          "internalType": "uint256",
          "name": "_index",
          "type": "uint256"
        }
      ],
      "name": "tokenByIndex",
      "outputs": [
        {
          "internalType": "uint256",
          "name": "",
          "type": "uint256"
        }
      ],
      "stateMutability": "view",
      "type": "function",
      "constant": true
    },
    {
      "inputs": [
        {
          "internalType": "address",
          "name": "_owner",
          "type": "address"
        },
        {
          "internalType": "uint256",
          "name": "_index",
          "type": "uint256"
        }
      ],
      "name": "tokenOfOwnerByIndex",
      "outputs": [
        {
          "internalType": "uint256",
          "name": "",
          "type": "uint256"
        }
      ],
      "stateMutability": "view",
      "type": "function",
      "constant": true
    },
    {
      "inputs": [],
      "name": "totalSupply",
      "outputs": [
        {
          "internalType": "uint256",
          "name": "",
          "type": "uint256"
        }
      ],
      "stateMutability": "view",
      "type": "function",
      "constant": true
    },
    {
      "inputs": [
        {
          "internalType": "address",
          "name": "_from",
          "type": "address"
        },
        {
          "internalType": "address",
          "name": "_to",
          "type": "address"
        },
        {
          "internalType": "uint256",
          "name": "_tokenId",
          "type": "uint256"
        }
      ],
      "name": "transferFrom",
      "outputs": [],
      "stateMutability": "nonpayable",
      "type": "function"
    },
    {
      "inputs": [
        {
          "internalType": "string",
          "name": "_kryptoBird",
          "type": "string"
        }
      ],
      "name": "mint",
      "outputs": [],
      "stateMutability": "nonpayable",
      "type": "function"
    }
  ],
  "bytecode": "0x60806040523480156200001157600080fd5b506040518060400160405280600a81526020017f4b727970746f42697264000000000000000000000000000000000000000000008152506040518060400160405280600681526020017f4b424952445a00000000000000000000000000000000000000000000000000008152508181816000908162000091919062000328565b508060019081620000a3919062000328565b50505050506200040f565b600081519050919050565b7f4e487b7100000000000000000000000000000000000000000000000000000000600052604160045260246000fd5b7f4e487b7100000000000000000000000000000000000000000000000000000000600052602260045260246000fd5b600060028204905060018216806200013057607f821691505b602082108103620001465762000145620000e8565b5b50919050565b60008190508160005260206000209050919050565b60006020601f8301049050919050565b600082821b905092915050565b600060088302620001b07fffffffffffffffffffffffffffffffffffffffffffffffffffffffffffffffff8262000171565b620001bc868362000171565b95508019841693508086168417925050509392505050565b6000819050919050565b6000819050919050565b60006200020962000203620001fd84620001d4565b620001de565b620001d4565b9050919050565b6000819050919050565b6200022583620001e8565b6200023d620002348262000210565b8484546200017e565b825550505050565b600090565b6200025462000245565b620002618184846200021a565b505050565b5b8181101562000289576200027d6000826200024a565b60018101905062000267565b5050565b601f821115620002d857620002a2816200014c565b620002ad8462000161565b81016020851015620002bd578190505b620002d5620002cc8562000161565b83018262000266565b50505b505050565b600082821c905092915050565b6000620002fd60001984600802620002dd565b1980831691505092915050565b6000620003188383620002ea565b9150826002028217905092915050565b6200033382620000ae565b67ffffffffffffffff8111156200034f576200034e620000b9565b5b6200035b825462000117565b620003688282856200028d565b600060209050601f831160018114620003a057600084156200038b578287015190505b6200039785826200030a565b86555062000407565b601f198416620003b0866200014c565b60005b82811015620003da57848901518255600182019150602085019450602081019050620003b3565b86831015620003fa5784890151620003f6601f891682620002ea565b8355505b6001600288020188555050505b505050505050565b6119e2806200041f6000396000f3fe608060405234801561001057600080fd5b506004361061009e5760003560e01c80636352211e116100665780636352211e1461015b57806370a082311461018b57806393ab6e56146101bb57806395d89b41146101eb578063d85d3d27146102095761009e565b806306fdde03146100a357806318160ddd146100c157806323b872dd146100df5780632f745c59146100fb5780634f6ccce71461012b575b600080fd5b6100ab610225565b6040516100b89190610df2565b60405180910390f35b6100c96102b7565b6040516100d69190610e2d565b60405180910390f35b6100f960048036038101906100f49190610ee6565b6102c4565b005b61011560048036038101906101109190610f39565b6102d4565b6040516101229190610e2d565b60405180910390f35b61014560048036038101906101409190610f79565b610384565b6040516101529190610e2d565b60405180910390f35b61017560048036038101906101709190610f79565b6103f5565b6040516101829190610fb5565b60405180910390f35b6101a560048036038101906101a09190610fd0565b61047a565b6040516101b29190610e2d565b60405180910390f35b6101d560048036038101906101d09190610f79565b610531565b6040516101e29190610df2565b60405180910390f35b6101f36105dd565b6040516102009190610df2565b60405180910390f35b610223600480360381019061021e9190611132565b61066f565b005b606060008054610234906111aa565b80601f0160208091040260200160405190810160405280929190818152602001828054610260906111aa565b80156102ad5780601f10610282576101008083540402835291602001916102ad565b820191906000526020600020905b81548152906001019060200180831161029057829003601f168201915b5050505050905090565b6000600580549050905090565b6102cf83838361076b565b505050565b60006102df8361047a565b8210610320576040517f08c379a000000000000000000000000000000000000000000000000000000000815260040161031790611227565b60405180910390fd5b600760008473ffffffffffffffffffffffffffffffffffffffff1673ffffffffffffffffffffffffffffffffffffffff168152602001908152602001600020828154811061037157610370611247565b5b9060005260206000200154905092915050565b600061038e6102b7565b82106103cf576040517f08c379a00000000000000000000000000000000000000000000000000000000081526004016103c6906112c2565b60405180910390fd5b600582815481106103e3576103e2611247565b5b90600052602060002001549050919050565b6000610400826109f8565b61043f576040517f08c379a00000000000000000000000000000000000000000000000000000000081526004016104369061132e565b60405180910390fd5b6002600083815260200190815260200160002060009054906101000a900473ffffffffffffffffffffffffffffffffffffffff169050919050565b60008073ffffffffffffffffffffffffffffffffffffffff168273ffffffffffffffffffffffffffffffffffffffff16036104ea576040517f08c379a00000000000000000000000000000000000000000000000000000000081526004016104e19061139a565b60405180910390fd5b600360008373ffffffffffffffffffffffffffffffffffffffff1673ffffffffffffffffffffffffffffffffffffffff168152602001908152602001600020549050919050565b6009818154811061054157600080fd5b90600052602060002001600091509050805461055c906111aa565b80601f0160208091040260200160405190810160405280929190818152602001828054610588906111aa565b80156105d55780601f106105aa576101008083540402835291602001916105d5565b820191906000526020600020905b8154815290600101906020018083116105b857829003601f168201915b505050505081565b6060600180546105ec906111aa565b80601f0160208091040260200160405190810160405280929190818152602001828054610618906111aa565b80156106655780601f1061063a57610100808354040283529160200191610665565b820191906000526020600020905b81548152906001019060200180831161064857829003601f168201915b5050505050905090565b600a8160405161067f91906113f6565b908152602001604051809103902060009054906101000a900460ff16156106db576040517f08c379a00000000000000000000000000000000000000000000000000000000081526004016106d290611459565b60405180910390fd5b60098190806001815401808255809150506001900390600052602060002001600090919091909150908161070f9190611625565b50600060016009805490506107249190611726565b90506107303382610a6a565b6001600a8360405161074291906113f6565b908152602001604051809103902060006101000a81548160ff0219169083151502179055505050565b600073ffffffffffffffffffffffffffffffffffffffff168273ffffffffffffffffffffffffffffffffffffffff16036107da576040517f08c379a00000000000000000000000000000000000000000000000000000000081526004016107d1906117a6565b60405180910390fd5b6107e3816109f8565b610822576040517f08c379a00000000000000000000000000000000000000000000000000000000081526004016108199061132e565b60405180910390fd5b61082b816103f5565b73ffffffffffffffffffffffffffffffffffffffff168373ffffffffffffffffffffffffffffffffffffffff1614610898576040517f08c379a000000000000000000000000000000000000000000000000000000000815260040161088f90611838565b60405180910390fd5b816002600083815260200190815260200160002060006101000a81548173ffffffffffffffffffffffffffffffffffffffff021916908373ffffffffffffffffffffffffffffffffffffffff1602179055506001600360008573ffffffffffffffffffffffffffffffffffffffff1673ffffffffffffffffffffffffffffffffffffffff168152602001908152602001600020600082825461093a9190611726565b925050819055506001600360008473ffffffffffffffffffffffffffffffffffffffff1673ffffffffffffffffffffffffffffffffffffffff16815260200190815260200160002060008282546109919190611858565b92505081905550808273ffffffffffffffffffffffffffffffffffffffff168473ffffffffffffffffffffffffffffffffffffffff167fddf252ad1be2c89b69c2b068fc378daa952ba7f163c4a11628f55a4df523b3ef60405160405180910390a4505050565b6000806002600084815260200190815260200160002060009054906101000a900473ffffffffffffffffffffffffffffffffffffffff169050600073ffffffffffffffffffffffffffffffffffffffff168173ffffffffffffffffffffffffffffffffffffffff161415915050919050565b610a748282610a8b565b610a7e8282610c4c565b610a8781610d10565b5050565b600073ffffffffffffffffffffffffffffffffffffffff168273ffffffffffffffffffffffffffffffffffffffff1603610afa576040517f08c379a0000000000000000000000000000000000000000000000000000000008152600401610af190611920565b60405180910390fd5b610b03816109f8565b15610b43576040517f08c379a0000000000000000000000000000000000000000000000000000000008152600401610b3a9061198c565b60405180910390fd5b816002600083815260200190815260200160002060006101000a81548173ffffffffffffffffffffffffffffffffffffffff021916908373ffffffffffffffffffffffffffffffffffffffff1602179055506001600360008473ffffffffffffffffffffffffffffffffffffffff1673ffffffffffffffffffffffffffffffffffffffff1681526020019081526020016000206000828254610be59190611858565b92505081905550808273ffffffffffffffffffffffffffffffffffffffff16600073ffffffffffffffffffffffffffffffffffffffff167fddf252ad1be2c89b69c2b068fc378daa952ba7f163c4a11628f55a4df523b3ef60405160405180910390a45050565b600760008373ffffffffffffffffffffffffffffffffffffffff1673ffffffffffffffffffffffffffffffffffffffff168152602001908152602001600020805490506008600083815260200190815260200160002081905550600760008373ffffffffffffffffffffffffffffffffffffffff1673ffffffffffffffffffffffffffffffffffffffff1681526020019081526020016000208190806001815401808255809150506001900390600052602060002001600090919091909150555050565b6005805490506006600083815260200190815260200160002081905550600581908060018154018082558091505060019003906000526020600020016000909190919091505550565b600081519050919050565b600082825260208201905092915050565b60005b83811015610d93578082015181840152602081019050610d78565b83811115610da2576000848401525b50505050565b6000601f19601f8301169050919050565b6000610dc482610d59565b610dce8185610d64565b9350610dde818560208601610d75565b610de781610da8565b840191505092915050565b60006020820190508181036000830152610e0c8184610db9565b905092915050565b6000819050919050565b610e2781610e14565b82525050565b6000602082019050610e426000830184610e1e565b92915050565b6000604051905090565b600080fd5b600080fd5b600073ffffffffffffffffffffffffffffffffffffffff82169050919050565b6000610e8782610e5c565b9050919050565b610e9781610e7c565b8114610ea257600080fd5b50565b600081359050610eb481610e8e565b92915050565b610ec381610e14565b8114610ece57600080fd5b50565b600081359050610ee081610eba565b92915050565b600080600060608486031215610eff57610efe610e52565b5b6000610f0d86828701610ea5565b9350506020610f1e86828701610ea5565b9250506040610f2f86828701610ed1565b9150509250925092565b60008060408385031215610f5057610f4f610e52565b5b6000610f5e85828601610ea5565b9250506020610f6f85828601610ed1565b9150509250929050565b600060208284031215610f8f57610f8e610e52565b5b6000610f9d84828501610ed1565b91505092915050565b610faf81610e7c565b82525050565b6000602082019050610fca6000830184610fa6565b92915050565b600060208284031215610fe657610fe5610e52565b5b6000610ff484828501610ea5565b91505092915050565b600080fd5b600080fd5b7f4e487b7100000000000000000000000000000000000000000000000000000000600052604160045260246000fd5b61103f82610da8565b810181811067ffffffffffffffff8211171561105e5761105d611007565b5b80604052505050565b6000611071610e48565b905061107d8282611036565b919050565b600067ffffffffffffffff82111561109d5761109c611007565b5b6110a682610da8565b9050602081019050919050565b82818337600083830152505050565b60006110d56110d084611082565b611067565b9050828152602081018484840111156110f1576110f0611002565b5b6110fc8482856110b3565b509392505050565b600082601f83011261111957611118610ffd565b5b81356111298482602086016110c2565b91505092915050565b60006020828403121561114857611147610e52565b5b600082013567ffffffffffffffff81111561116657611165610e57565b5b61117284828501611104565b91505092915050565b7f4e487b7100000000000000000000000000000000000000000000000000000000600052602260045260246000fd5b600060028204905060018216806111c257607f821691505b6020821081036111d5576111d461117b565b5b50919050565b7f4f776e657220696e646578206973206f7574206f6620626f756e640000000000600082015250565b6000611211601b83610d64565b915061121c826111db565b602082019050919050565b6000602082019050818103600083015261124081611204565b9050919050565b7f4e487b7100000000000000000000000000000000000000000000000000000000600052603260045260246000fd5b7f476c6f62616c20696e646578206973206f7574206f6620626f756e6473000000600082015250565b60006112ac601d83610d64565b91506112b782611276565b602082019050919050565b600060208201905081810360008301526112db8161129f565b9050919050565b7f4552433732313a20546f6b656e20646f6573206e6f7420657869737421000000600082015250565b6000611318601d83610d64565b9150611323826112e2565b602082019050919050565b600060208201905081810360008301526113478161130b565b9050919050565b7f4552433732313a204f776e6572207175657279206973206e6f742076616c6964600082015250565b6000611384602083610d64565b915061138f8261134e565b602082019050919050565b600060208201905081810360008301526113b381611377565b9050919050565b600081905092915050565b60006113d082610d59565b6113da81856113ba565b93506113ea818560208601610d75565b80840191505092915050565b600061140282846113c5565b915081905092915050565b7f4572726f723a206b727970746f6269726420616c726561647920657869737473600082015250565b6000611443602083610d64565b915061144e8261140d565b602082019050919050565b6000602082019050818103600083015261147281611436565b9050919050565b60008190508160005260206000209050919050565b60006020601f8301049050919050565b600082821b905092915050565b6000600883026114db7fffffffffffffffffffffffffffffffffffffffffffffffffffffffffffffffff8261149e565b6114e5868361149e565b95508019841693508086168417925050509392505050565b6000819050919050565b600061152261151d61151884610e14565b6114fd565b610e14565b9050919050565b6000819050919050565b61153c83611507565b61155061154882611529565b8484546114ab565b825550505050565b600090565b611565611558565b611570818484611533565b505050565b5b818110156115945761158960008261155d565b600181019050611576565b5050565b601f8211156115d9576115aa81611479565b6115b38461148e565b810160208510156115c2578190505b6115d66115ce8561148e565b830182611575565b50505b505050565b600082821c905092915050565b60006115fc600019846008026115de565b1980831691505092915050565b600061161583836115eb565b9150826002028217905092915050565b61162e82610d59565b67ffffffffffffffff81111561164757611646611007565b5b61165182546111aa565b61165c828285611598565b600060209050601f83116001811461168f576000841561167d578287015190505b6116878582611609565b8655506116ef565b601f19841661169d86611479565b60005b828110156116c5578489015182556001820191506020850194506020810190506116a0565b868310156116e257848901516116de601f8916826115eb565b8355505b6001600288020188555050505b505050505050565b7f4e487b7100000000000000000000000000000000000000000000000000000000600052601160045260246000fd5b600061173182610e14565b915061173c83610e14565b92508282101561174f5761174e6116f7565b5b828203905092915050565b7f4552433732313a20696e76616c696420746f2061646472657373000000000000600082015250565b6000611790601a83610d64565b915061179b8261175a565b602082019050919050565b600060208201905081810360008301526117bf81611783565b9050919050565b7f4552433732313a2066726f6d2061646472657373206973206e6f74207468652060008201527f6f776e6572206f66207468697320746f6b656e00000000000000000000000000602082015250565b6000611822603383610d64565b915061182d826117c6565b604082019050919050565b6000602082019050818103600083015261185181611815565b9050919050565b600061186382610e14565b915061186e83610e14565b9250827fffffffffffffffffffffffffffffffffffffffffffffffffffffffffffffffff038211156118a3576118a26116f7565b5b828201905092915050565b7f4552433732313a206d696e74696e6720746f2061207a65726f2061646472657360008201527f7300000000000000000000000000000000000000000000000000000000000000602082015250565b600061190a602183610d64565b9150611915826118ae565b604082019050919050565b60006020820190508181036000830152611939816118fd565b9050919050565b7f4552433732313a20746f6b656e20616c7265616479206d696e74656400000000600082015250565b6000611976601c83610d64565b915061198182611940565b602082019050919050565b600060208201905081810360008301526119a581611969565b905091905056fea2646970667358221220474140de1a1c31f211cbfb84738546e4916c806ad7126c5db5d10dfd05d306a264736f6c634300080f0033",
  "immutableReferences": {},
  "source": "// SPDX-License-Identifier: MIT\npragma solidity ^0.8.0;\n\nimport './ERC721Connector.sol';\n\ncontract KryptoBird is ERC721Connector {\n    string[] public kryptoBirdz;\n    \n    mapping(string => bool) _kryptoBirdzExists;\n\n    function mint(string memory _kryptoBird) public {\n        require(\n            !_kryptoBirdzExists[_kryptoBird],\n            'Error: kryptobird already exists'\n        );\n        \n        kryptoBirdz.push(_kryptoBird);\n        \n        uint _id = kryptoBirdz.length - 1;\n        _mint(msg.sender, _id);\n        \n        _kryptoBirdzExists[_kryptoBird] = true;\n    }\n    constructor() ERC721Connector('KryptoBird', 'KBIRDZ') {}\n}",
  "sourcePath": "/Users/asfour/workspace/personal/nft_study/nft-marketplace-starter-kit/src/contracts/KryptoBirdz.sol",
  "compiler": {
    "name": "solc",
    "version": "0.8.15+commit.e14f2714.Emscripten.clang"
  },
  "schemaVersion": "3.4.7",
  "updatedAt": "2022-06-19T02:07:25.084Z",
  "networkType": "ethereum",
  "devdoc": {
    "kind": "dev",
    "methods": {},
    "version": 1
  },
  "userdoc": {
    "kind": "user",
    "methods": {},
    "version": 1
  }
}