{
  "contractName": "Kryptobird",
  "abi": [
    {
      "inputs": [],
      "stateMutability": "nonpayable",
      "type": "constructor"
    },
    {
      "anonymous": false,
      "inputs": [
        {
          "indexed": true,
          "internalType": "address",
          "name": "from",
          "type": "address"
        },
        {
          "indexed": true,
          "internalType": "address",
          "name": "to",
          "type": "address"
        },
        {
          "indexed": true,
          "internalType": "uint256",
          "name": "tokenId",
          "type": "uint256"
        }
      ],
      "name": "Transfer",
      "type": "event"
    },
    {
      "inputs": [
        {
          "internalType": "uint256",
          "name": "",
          "type": "uint256"
        }
      ],
      "name": "kryptobirdz",
      "outputs": [
        {
          "internalType": "string",
          "name": "",
          "type": "string"
        }
      ],
      "stateMutability": "view",
      "type": "function",
      "constant": true
    },
    {
      "inputs": [],
      "name": "name",
      "outputs": [
        {
          "internalType": "string",
          "name": "",
          "type": "string"
        }
      ],
      "stateMutability": "view",
      "type": "function",
      "constant": true
    },
    {
      "inputs": [],
      "name": "symbol",
      "outputs": [
        {
          "internalType": "string",
          "name": "",
          "type": "string"
        }
      ],
      "stateMutability": "view",
      "type": "function",
      "constant": true
    },
    {
      "inputs": [
        {
          "internalType": "string",
          "name": "_kryptoBird",
          "type": "string"
        }
      ],
      "name": "mint",
      "outputs": [],
      "stateMutability": "nonpayable",
      "type": "function"
    }
  ],
  "bytecode": "0x60806040523480156200001157600080fd5b506040518060400160405280600a81526020017f4b727970746f62697264000000000000000000000000000000000000000000008152506040518060400160405280600681526020017f4b424952445a00000000000000000000000000000000000000000000000000008152508181816000908162000091919062000328565b508060019081620000a3919062000328565b50505050506200040f565b600081519050919050565b7f4e487b7100000000000000000000000000000000000000000000000000000000600052604160045260246000fd5b7f4e487b7100000000000000000000000000000000000000000000000000000000600052602260045260246000fd5b600060028204905060018216806200013057607f821691505b602082108103620001465762000145620000e8565b5b50919050565b60008190508160005260206000209050919050565b60006020601f8301049050919050565b600082821b905092915050565b600060088302620001b07fffffffffffffffffffffffffffffffffffffffffffffffffffffffffffffffff8262000171565b620001bc868362000171565b95508019841693508086168417925050509392505050565b6000819050919050565b6000819050919050565b60006200020962000203620001fd84620001d4565b620001de565b620001d4565b9050919050565b6000819050919050565b6200022583620001e8565b6200023d620002348262000210565b8484546200017e565b825550505050565b600090565b6200025462000245565b620002618184846200021a565b505050565b5b8181101562000289576200027d6000826200024a565b60018101905062000267565b5050565b601f821115620002d857620002a2816200014c565b620002ad8462000161565b81016020851015620002bd578190505b620002d5620002cc8562000161565b83018262000266565b50505b505050565b600082821c905092915050565b6000620002fd60001984600802620002dd565b1980831691505092915050565b6000620003188383620002ea565b9150826002028217905092915050565b6200033382620000ae565b67ffffffffffffffff8111156200034f576200034e620000b9565b5b6200035b825462000117565b620003688282856200028d565b600060209050601f831160018114620003a057600084156200038b578287015190505b6200039785826200030a565b86555062000407565b601f198416620003b0866200014c565b60005b82811015620003da57848901518255600182019150602085019450602081019050620003b3565b86831015620003fa5784890151620003f6601f891682620002ea565b8355505b6001600288020188555050505b505050505050565b610e12806200041f6000396000f3fe608060405234801561001057600080fd5b506004361061004c5760003560e01c806306fdde031461005157806336a129a31461006f57806395d89b411461009f578063d85d3d27146100bd575b600080fd5b6100596100d9565b6040516100669190610671565b60405180910390f35b610089600480360381019061008491906106dd565b61016b565b6040516100969190610671565b60405180910390f35b6100a7610217565b6040516100b49190610671565b60405180910390f35b6100d760048036038101906100d2919061083f565b6102a9565b005b6060600080546100e8906108b7565b80601f0160208091040260200160405190810160405280929190818152602001828054610114906108b7565b80156101615780601f1061013657610100808354040283529160200191610161565b820191906000526020600020905b81548152906001019060200180831161014457829003601f168201915b5050505050905090565b6004818154811061017b57600080fd5b906000526020600020016000915090508054610196906108b7565b80601f01602080910402602001604051908101604052809291908181526020018280546101c2906108b7565b801561020f5780601f106101e45761010080835404028352916020019161020f565b820191906000526020600020905b8154815290600101906020018083116101f257829003601f168201915b505050505081565b606060018054610226906108b7565b80601f0160208091040260200160405190810160405280929190818152602001828054610252906108b7565b801561029f5780601f106102745761010080835404028352916020019161029f565b820191906000526020600020905b81548152906001019060200180831161028257829003601f168201915b5050505050905090565b6005816040516102b99190610924565b908152602001604051809103902060009054906101000a900460ff1615610315576040517f08c379a000000000000000000000000000000000000000000000000000000000815260040161030c90610987565b60405180910390fd5b6004819080600181540180825580915050600190039060005260206000200160009091909190915090816103499190610b53565b506000600160048054905061035e9190610c54565b905061036a33826103a5565b600160058360405161037c9190610924565b908152602001604051809103902060006101000a81548160ff0219169083151502179055505050565b600073ffffffffffffffffffffffffffffffffffffffff168273ffffffffffffffffffffffffffffffffffffffff1603610414576040517f08c379a000000000000000000000000000000000000000000000000000000000815260040161040b90610cfa565b60405180910390fd5b61041d81610566565b1561045d576040517f08c379a000000000000000000000000000000000000000000000000000000000815260040161045490610d66565b60405180910390fd5b816002600083815260200190815260200160002060006101000a81548173ffffffffffffffffffffffffffffffffffffffff021916908373ffffffffffffffffffffffffffffffffffffffff1602179055506001600360008473ffffffffffffffffffffffffffffffffffffffff1673ffffffffffffffffffffffffffffffffffffffff16815260200190815260200160002060008282546104ff9190610d86565b92505081905550808273ffffffffffffffffffffffffffffffffffffffff16600073ffffffffffffffffffffffffffffffffffffffff167fddf252ad1be2c89b69c2b068fc378daa952ba7f163c4a11628f55a4df523b3ef60405160405180910390a45050565b6000806002600084815260200190815260200160002060009054906101000a900473ffffffffffffffffffffffffffffffffffffffff169050600073ffffffffffffffffffffffffffffffffffffffff168173ffffffffffffffffffffffffffffffffffffffff161415915050919050565b600081519050919050565b600082825260208201905092915050565b60005b838110156106125780820151818401526020810190506105f7565b83811115610621576000848401525b50505050565b6000601f19601f8301169050919050565b6000610643826105d8565b61064d81856105e3565b935061065d8185602086016105f4565b61066681610627565b840191505092915050565b6000602082019050818103600083015261068b8184610638565b905092915050565b6000604051905090565b600080fd5b600080fd5b6000819050919050565b6106ba816106a7565b81146106c557600080fd5b50565b6000813590506106d7816106b1565b92915050565b6000602082840312156106f3576106f261069d565b5b6000610701848285016106c8565b91505092915050565b600080fd5b600080fd5b7f4e487b7100000000000000000000000000000000000000000000000000000000600052604160045260246000fd5b61074c82610627565b810181811067ffffffffffffffff8211171561076b5761076a610714565b5b80604052505050565b600061077e610693565b905061078a8282610743565b919050565b600067ffffffffffffffff8211156107aa576107a9610714565b5b6107b382610627565b9050602081019050919050565b82818337600083830152505050565b60006107e26107dd8461078f565b610774565b9050828152602081018484840111156107fe576107fd61070f565b5b6108098482856107c0565b509392505050565b600082601f8301126108265761082561070a565b5b81356108368482602086016107cf565b91505092915050565b6000602082840312156108555761085461069d565b5b600082013567ffffffffffffffff811115610873576108726106a2565b5b61087f84828501610811565b91505092915050565b7f4e487b7100000000000000000000000000000000000000000000000000000000600052602260045260246000fd5b600060028204905060018216806108cf57607f821691505b6020821081036108e2576108e1610888565b5b50919050565b600081905092915050565b60006108fe826105d8565b61090881856108e8565b93506109188185602086016105f4565b80840191505092915050565b600061093082846108f3565b915081905092915050565b7f4572726f723a206b727970746f6269726420616c726561647920657869737473600082015250565b60006109716020836105e3565b915061097c8261093b565b602082019050919050565b600060208201905081810360008301526109a081610964565b9050919050565b60008190508160005260206000209050919050565b60006020601f8301049050919050565b600082821b905092915050565b600060088302610a097fffffffffffffffffffffffffffffffffffffffffffffffffffffffffffffffff826109cc565b610a1386836109cc565b95508019841693508086168417925050509392505050565b6000819050919050565b6000610a50610a4b610a46846106a7565b610a2b565b6106a7565b9050919050565b6000819050919050565b610a6a83610a35565b610a7e610a7682610a57565b8484546109d9565b825550505050565b600090565b610a93610a86565b610a9e818484610a61565b505050565b5b81811015610ac257610ab7600082610a8b565b600181019050610aa4565b5050565b601f821115610b0757610ad8816109a7565b610ae1846109bc565b81016020851015610af0578190505b610b04610afc856109bc565b830182610aa3565b50505b505050565b600082821c905092915050565b6000610b2a60001984600802610b0c565b1980831691505092915050565b6000610b438383610b19565b9150826002028217905092915050565b610b5c826105d8565b67ffffffffffffffff811115610b7557610b74610714565b5b610b7f82546108b7565b610b8a828285610ac6565b600060209050601f831160018114610bbd5760008415610bab578287015190505b610bb58582610b37565b865550610c1d565b601f198416610bcb866109a7565b60005b82811015610bf357848901518255600182019150602085019450602081019050610bce565b86831015610c105784890151610c0c601f891682610b19565b8355505b6001600288020188555050505b505050505050565b7f4e487b7100000000000000000000000000000000000000000000000000000000600052601160045260246000fd5b6000610c5f826106a7565b9150610c6a836106a7565b925082821015610c7d57610c7c610c25565b5b828203905092915050565b7f4552433732313a206d696e74696e6720746f2061207a65726f2061646472657360008201527f7300000000000000000000000000000000000000000000000000000000000000602082015250565b6000610ce46021836105e3565b9150610cef82610c88565b604082019050919050565b60006020820190508181036000830152610d1381610cd7565b9050919050565b7f45523732313a20746f6b656e20616c7265616479206d696e7465640000000000600082015250565b6000610d50601b836105e3565b9150610d5b82610d1a565b602082019050919050565b60006020820190508181036000830152610d7f81610d43565b9050919050565b6000610d91826106a7565b9150610d9c836106a7565b9250827fffffffffffffffffffffffffffffffffffffffffffffffffffffffffffffffff03821115610dd157610dd0610c25565b5b82820190509291505056fea2646970667358221220112a19ee02a4daf20a841bd3e71c0dfa79331f381aeb2d62103a85b8436b87bc64736f6c634300080f0033",
  "immutableReferences": {},
  "source": "// SPDX-License-Identifier: MIT\npragma solidity ^0.8.0;\n\nimport './ERC721Connector.sol';\n\ncontract Kryptobird is ERC721Connector {\n    string[] public kryptobirdz;\n    \n    mapping(string => bool) _kryptobirdzExists;\n\n    function mint(string memory _kryptoBird) public {\n        require(\n            !_kryptobirdzExists[_kryptoBird],\n            'Error: kryptobird already exists'\n        );\n        \n        kryptobirdz.push(_kryptoBird);\n        \n        uint _id = kryptobirdz.length - 1;\n        _mint(msg.sender, _id);\n        \n        _kryptobirdzExists[_kryptoBird] = true;\n    }\n    constructor() ERC721Connector('Kryptobird', 'KBIRDZ') {}\n}",
  "sourcePath": "/home/asfour/workspace/personal/nft_study/nft-marketplace-starter-kit/src/contracts/KryptoBirdz.sol",
  "compiler": {
    "name": "solc",
    "version": "0.8.15+commit.e14f2714.Emscripten.clang"
  },
  "schemaVersion": "3.4.7",
  "updatedAt": "2022-06-18T22:03:33.339Z",
  "networkType": "ethereum",
  "devdoc": {
    "kind": "dev",
    "methods": {},
    "version": 1
  },
  "userdoc": {
    "kind": "user",
    "methods": {},
    "version": 1
  }
}